:020000040800F2
:100000003807002029020008A50500086F03000832
:10001000A1050008D1020008DB0A0008000000006A
:10002000000000000000000000000000710800084F
:10003000D5020008000000004F08000889090008E8
:10004000430200084302000843020008430200087C
:10005000430200084302000843020008430200086C
:10006000430200084302000843020008430200085C
:10007000430200084302000843020008430200084C
:10008000430200084302000843020008430200083C
:10009000430200084302000843020008430200082C
:1000A000430200084302000843020008430200081C
:1000B000430200084302000843020008430200080C
:1000C00043020008430200084302000843020008FC
:1000D00043020008F5090008430200084302000833
:1000E00043020008430200084302000843020008DC
:1000F00043020008430200084302000843020008CC
:1001000043020008430200084302000843020008BB
:1001100043020008430200084302000843020008AB
:10012000430200084302000843020008430200089B
:10013000430200084302000843020008430200088B
:10014000430200084302000843020008430200087B
:10015000430200084302000843020008430200086B
:10016000430200084302000843020008430200085B
:10017000430200084302000843020008430200084B
:10018000430200084302000800F002F800F03CF8C7
:100190000AA090E8000C82448344AAF10107DA45E2
:1001A00001D100F031F8AFF2090EBAE80F0013F0F8
:1001B000010F18BFFB1A43F001031847381700005E
:1001C00058170000103A24BF78C878C1FAD85207EF
:1001D00024BF30C830C144BF04680C6070470000C1
:1001E0000023002400250026103A28BF78C1FBD840
:1001F000520728BF30C148BF0B6070471FB500F0E1
:1002000067FD1FBD10B510BD00F033F81146FFF7B4
:10021000F5FF00F0EDFC00F051F803B4FFF7F2FF3A
:1002200003BC00F05CFC0000094880470948004717
:10023000FEE7FEE7FEE7FEE7FEE7FEE7FEE7FEE796
:10024000FEE7FEE704480549054A064B70470000F3
:100250008D090008890100083801002038070020B6
:1002600038030020380300207047704770477047FC
:100270007047754600F028F8AE46050069465346BB
:1002800020F00700854618B020B5FFF7DBFFBDE87A
:1002900020404FF000064FF000074FF000084FF0ED
:1002A000000B21F00701AC46ACE8C009ACE8C0097E
:1002B000ACE8C009ACE8C0098D4670470446AFF30E
:1002C00000802046FFF7A9FF00487047D4000020B7
:1002D00000BFFEE77047F0B50A4600210023002466
:1002E00000BF3DE0012505FA01F3156805EA0304A6
:1002F0009C4234D105684F000326BE40B5430560DB
:1003000015794E00B5400668354305601579012D15
:1003100002D01579022D16D185684F000326BE4004
:10032000B543856055794E00B54086683543856094
:10033000456801268E40B5434560456896798E40F4
:10034000B6B235434560C5684F000326BE40B5438D
:10035000C560D5794E00B540C6683543C560491CB7
:100360001029BFD3F0BD418370470183704700BFA0
:10037000FEE700001CB50121084600F069FA0121E2
:10038000042000F065FA4FF48070009001208DF891
:10039000040000208DF8060003208DF805000120E0
:1003A0008DF8070069460848FFF795FF4FF4007085
:1003B000009069460548FFF78EFF01200449086058
:1003C0000449C1F8A4021CBD00000240000802401C
:1003D000A00240420000414270B50446184800683F
:1003E00020F44020164908601648006840F4802038
:1003F0001449086000201449086000251CE0E00949
:1004000018B101201149086002E000200F4908607E
:100410006006040E052000F09FFB01200A490860D9
:10042000052000F099FB00200949C1F8A002052031
:1004300000F092FB681CC5B2082DE0DB70BD000027
:100440000004024000080240A0024042A4024142CF
:100450000000404210B51048006820F440200E49CA
:1004600008600E48006840F480200C4908600120B4
:100470000B4908600B49C1F8A002022000F06CFB98
:10048000002007490860022000F066FB00200549B3
:10049000C1F8A00210BD00000004024000080240A4
:1004A000A40241420000404210B50F48006820F409
:1004B00040200D4908600D48006840F480200B4939
:1004C000086000200A4908600A49C1F8A402022015
:1004D00000F042FB0120064908600649C1F8A40269
:1004E000022000F039FB10BD000402400008024069
:1004F000A00240420000414210B5002413480068A9
:1005000020F4402011490860114800681049086033
:1005100001201049086000F01FFB01200E49C1F8BE
:10052000A00200F019FB07E0601CC4B2FA2C03DD46
:10053000FFF7BAFF012010BD064880380068002888
:10054000F2D10649086000BFF5E700000004024050
:1005500000080240A402414200004042A002404282
:100560001CB50121202000F073F94FF4C060009009
:1005700001208DF8040000208DF8060003208DF87E
:10058000050001208DF8070069460448FFF7A3FE27
:100590004FF4C0610148FFF7E8FE1CBD00140240A3
:1005A00000BFFEE7704770B5002415E004F1B0010C
:1005B000C8B200F01DF9012000F01AF9102000F077
:1005C00017F9002504E0002000F02BF9681CC5B2E3
:1005D000802DF8DB601CC4B2082CE7DB70BD70B561
:1005E0000646002415E004F1B001C8B200F000F99D
:1005F000012000F0FDF8102000F0FAF8002504E0DA
:10060000304600F00EF9681CC5B2802DF8DB601C86
:10061000C4B2082CE7DB70BD10B54FF4FA7000F0DF
:100620007FFAAE2000F0E4F8002000F0E1F810209E
:1006300000F0DEF8402000F0DBF8812000F0D8F870
:10064000CF2000F0D5F8A12000F0D2F8C82000F0AB
:10065000CFF8A62000F0CCF8A82000F0C9F83F2081
:1006600000F0C6F8D32000F0C3F8002000F0C0F876
:10067000D52000F0BDF8802000F0BAF8D92000F0B5
:10068000B7F8F12000F0B4F8DA2000F0B1F8122049
:1006900000F0AEF8DB2000F0ABF8402000F0A8F846
:1006A000202000F0A5F8022000F0A2F88D2000F034
:1006B0009FF8142000F09CF8A42000F099F8A620E0
:1006C00000F096F8AF2000F093F80020FFF787FFC6
:1006D0000021084600F078F810BD00002DE9F04731
:1006E0000446884615464FF000090026002720E002
:1006F000E85D203800F0FF097E2C04DD002408F1BD
:10070000010000F0FF084146204600F05DF8002699
:1007100009E009EB4901094A02EB4101885D00F05B
:1007200080F8701CC6B2062EF3DBA01DC4B2781C84
:10073000C7B2E85D0028DBD1BDE8F087DA10000819
:100740002DE9F04706460F46904600250024A146B5
:1007500031E018F809002038C5B2782E02DD0026F5
:10076000781CC7B23946304600F02EF8002407E066
:1007700004EB0511134A505C00F053F8601CC4B23E
:10078000082CF5DB781CC1B2304600F01DF80024BF
:1007900008E004EB051108310A4A505C00F041F80A
:1007A000601CC4B2082CF4DB06F10800C6B209F1E3
:1007B000010000F0FF0918F809000028C9D1BDE8C0
:1007C000F08700000213000870B504460D4605F1DD
:1007D000B001C8B200F00CF8102141EA141000F08A
:1007E00007F804F00F0141F0010000F001F870BDBE
:1007F00010B50446FFF72EFE7820FFF7EDFDFFF75A
:100800007BFE08B100BFFEE70020FFF7E5FDFFF724
:1008100073FE2046FFF7E0FDFFF76EFEFFF744FE94
:1008200010BD10B50446FFF715FE7820FFF7D4FD84
:10083000FFF762FE4020FFF7CFFDFFF75DFE204689
:10084000FFF7CAFDFFF758FEFFF72EFE10BD7047F9
:1008500029B1064A12680243044B1A6004E0034AB5
:1008600012688243014B1A60704700003038024022
:10087000704700000CB500200190009034480068DB
:1008800040F480303249086000BF3148006800F40D
:10089000003000900198401C0190009818B9019810
:1008A000B0F5A04FF1D12A48006800F4003010B133
:1008B0000120009001E0002000900098012846D11E
:1008C00023484030006840F08050214940310860A2
:1008D0002048006840F440401E4908601C48083029
:1008E00000681B49083108600846006840F4004071
:1008F00008600846006840F4A05008601648091FC8
:100900000860081F006840F08070091F086000BF81
:100910000F48006800F000700028F9D040F2057020
:100920000E4908600A480830006820F003000849B2
:10093000083108600846006840F00200086000BF07
:1009400003480830006800F00C000828F8D10CBDFE
:10095000003802400070004008544007003C02404C
:10096000042808D14FF0E021096941F004014FF05B
:10097000E022116107E04FF0E021096921F0040154
:100980004FF0E022116170477047000010B5154824
:10099000006840F47000134908601348006840F094
:1009A00001001149086000200F49083108600E4815
:1009B00000680E4908400C4908600D48091D086090
:1009C000081F006820F48020091F086000200649E5
:1009D0000C310860FFF74EFF4FF00060014980398D
:1009E000086010BD88ED00E000380240FFFFF6FE11
:1009F0001030002410B540F225511D4800F03EF89B
:100A000010B31B4800F064F8C4B21A48008800F420
:100A10000040C8B91748008800F4804060B10A2C33
:100A200003D000201349088020E01248008840F4D9
:100A300000401049088019E00D2C06D10D480088AF
:100A400040F480400B49088010E00A480088C0F359
:100A50000D0009490C5407480088401C05490880CE
:100A600008460088C72801DD0020088010BD00006E
:100A700000100140080000200C00002070B5024664
:100A8000002400230025002040F66A16B14200D160
:100A900000BFC1F3421501F01F03012606FA03F35C
:100AA000012D02D19689334006E0022D02D1168A2B
:100AB000334001E0968A33400C12012606FA04F412
:100AC0001688344013B10CB1012000E0002070BD45
:100AD00001468888C0F30800704700BFFEE7014662
:100AE00000BF704710B504466FF00400FFF738FFF1
:100AF000E11704EB5171C1F3C701074A11701046A9
:100B0000007800EB4001C1EBC0104FF6FF7101EA25
:100B1000C0000249088010BD000000200200002033
:100B200070B504464FF4077094FBF0F0C6B24FF472
:100B3000077094FBF0F100FB114085B205E04FF423
:100B4000077000F02FF8701EC6B2002EF7D115B155
:100B5000284600F027F870BD0146114A12784A4332
:100B60004FF0E0235A6100229A611A46126942F05E
:100B700001021A6100BF4FF0E022106900F001028B
:100B80001AB100F48032002AF5D04FF0E022126949
:100B900022F001024FF0E0231A6100229A617047AF
:100BA000000000200146114A12884A434FF0E0231A
:100BB0005A6100229A611A46126942F001021A61D2
:100BC00000BF4FF0E022106900F001021AB100F4FA
:100BD0008032002AF5D04FF0E022126922F00102A3
:100BE0004FF0E0231A6100229A6170470200002052
:100BF000A820FFF777FFFFF7B3FCFFF7BBFBFFF77A
:100C00000BFD3AE01DA200210846FFF799FD1DA249
:100C100002210020FFF794FD1EA204210020FFF70F
:100C20008FFD20A206210020FFF758FD22A20721F8
:100C30000020FFF753FD4FF47A70FFF771FFFFF7C5
:100C4000B2FC4FF400712148FFF78DFB4FF4806137
:100C50001E48FFF78AFB4FF4FA70FFF761FF4FF46D
:100C600000711A48FFF781FB4FF480611748FFF7C6
:100C70007AFB4FF4FA70FFF753FFC3E748656C54F3
:100C8000656300004F4C454420446973706C617982
:100C9000000000007777772E68656C7465632E63BB
:100CA0006E000000636E2E68656C74656340676D4E
:100CB00061696C2E636F6D0068656C7465632E747A
:100CC000616F62616F2E636F6D000000001402405F
:100CD0004FF04070E1EE100A704700000000000085
:100CE0000000000000000000000000000000000004
:100CF00000000000000000000000000202FAFAAA52
:100D0000AAFFFFAAAAFAFA020200004272723A7A15
:100D1000424B5B52626213776600203C1CFFFFB0BF
:100D2000B424243F3FE4E4242420020203FFFF0014
:100D300001051D59C1FF7F010101000000F8F848BD
:100D40004C4F4B4A4848F8F80000000000FFFF44B1
:100D5000444444444444FFFF0000202424E4E424A9
:100D600024243010FFFF10F0F000081C1F0B0C0DA6
:100D70004F6E341C0F23607F3F0080C060F8FF0778
:100D80000200FFFFE0703C1C08000000007F7F04B1
:100D900006033F7F404040787800000000000000DC
:100DA0000000000000000000000000000000000043
:100DB0000000000000000000000000000000000033
:100DC0000000000000000000000000000000000023
:100DD0000000000000000000000010218670007E6E
:100DE0004A4A4A4A4A7E0000000002FE01407F4112
:100DF000417F41417F41417F40000000FC042424A9
:100E0000FCA5A6A4FC242424040080601F8080424A
:100E1000462A12122A2642C04000080808FF8848C5
:100E2000009848280A2C48D808000242817F000018
:100E3000404242427E424242400000504F4A48FFF8
:100E400048484800FC0000FF000000003F0101FF8F
:100E500021613F000F40807F000000908CA4A4A47B
:100E6000A5A6A4A4A4A4948C040000804020180784
:100E70000000003F404040700000000474D4FFD4E4
:100E80007404100CB744B40C04000042437A43428B
:100E9000437E4B4B4A4A42430100080808080808B1
:100EA000F94A4C4848C808080800404020100C0384
:100EB00000002040403F0000000000202C2464740B
:100EC000ADA6E43424242C24000000242425151588
:100ED0000DFE040D171424642400000000F8484897
:100EE0004C4B4A484848F8000000000000FF4444CA
:100EF000444444444444FF000000202424E42424C7
:100F000024201010FF1010F00000081C0B080C0526
:100F10004E24100C0320403F0000080808FF8848BA
:100F2000009848280A2C48D808000242817F000017
:100F3000404242427E424242400000504F4A48FFF7
:100F400048484800FC0000FF000000003F0101FF8E
:100F500021613F000F40807F00000807FAAAAEAA77
:100F6000AAA8ACABAAFE0A02020008088B6A1E0AF5
:100F70000A0A0AFE0A0B08080800106001C63000C1
:100F8000101010FF1010101000000404FE010041AA
:100F900061514D43414151E101004041CE04008087
:100FA00040BE828282BEC040400000007F20908010
:100FB00040432C10102C43C0400020212EE40000A0
:100FC00020202020FF20202020000000007F201073
:100FD00008000000FF00000000000000F84848483A
:100FE00048FF48484848F800000000000F04040487
:100FF000043F444444444F40700000000202020297
:1010000002E2120A06020080000001010101014112
:10101000817F01010101010101000020202222E263
:10102000222222E2222222202000004020100C0353
:101030000000003F4040404070004020F80F8260B8
:101040001E1410FF1010101000000000FF0001011E
:10105000010101FF010101010100000000007E48C3
:1010600048484848484848CC0800000404040404A0
:10107000040404244644201F0000849494FF9494A4
:1010800080242424FC1213120000201806FF021CE6
:101090000A0202023F41414171001010D0FE5090FF
:1010A00000101010D0FE10101000080601FF000103
:1010B00010080443807F000000009088A7A2A6BA11
:1010C000A2F8A7A2A6BAA282800000040404040C1D
:1010D000340444847F040404000000000000000085
:1010E0000000002F000000000700070000147F141C
:1010F0007F1400242A7F2A1200626408132300361A
:101100004955225000000503000000001C22410048
:10111000000041221C000014083E08140008083E8C
:101120000808000000A06000000808080808000087
:1011300060600000002010080402003E5149453E56
:101140000000427F40000042615149460021414574
:101150004B31001814127F10002745454539003CDB
:101160004A494930000171090503003649494936A9
:1011700000064949291E0000363600000000563698
:10118000000000081422410000141414141400007C
:101190004122140800020151090600324959513E0A
:1011A000007C1211127C007F49494936003E4141C2
:1011B0004122007F4141221C007F49494941007F73
:1011C00009090901003E4149497A007F0808087F62
:1011D0000000417F4100002040413F01007F081492
:1011E0002241007F40404040007F020C027F007F90
:1011F0000408107F003E4141413E007F0909090675
:10120000003E4151215E007F0919294600464949A7
:1012100049310001017F0101003F4040403F001F74
:101220002040201F003F4038403F006314081463F3
:1012300000070870080700615149454300007F41DD
:10124000410000552A552A55000041417F00000405
:10125000020102040040404040400000010204003E
:10126000002054545478007F4844443800384444A3
:10127000442000384444487F00385454541800082F
:101280007E0901020018A4A4A47C007F080404784D
:101290000000447D4000004080847D00007F1028D5
:1012A00044000000417F4000007C04180478007C6A
:1012B0000804047800384444443800FC24242418EA
:1012C0000018242418FC007C080404080048545426
:1012D000542000043F444020003C4040207C001C3F
:1012E0002040201C003C4030403C00442810284452
:1012F000001CA0A0A07C004464544C44141414149A
:1013000014140000000000000000000000000000B5
:101310000000000000F80000000000000033300072
:10132000000000100C06100C060000000000000079
:10133000000040C07840C0784000043F04043F04EF
:101340000400007088FC08300000001820FF211EF7
:101350000000F008F000E018000000211C031E212E
:101360001E0000F00888700000001E2123241927A9
:10137000211010160E000000000000000000000008
:101380000000000000E01804020000000007182020
:10139000400000020418E000000000402018070090
:1013A0000000404080F0804040000202010F010236
:1013B0000200000000F0000000000101011F010117
:1013C0000100000000000000000080B0700000007C
:1013D0000000000000000000000000010101010108
:1013E000010100000000000000000030300000009B
:1013F0000000000000008060180400601806010072
:10140000000000E010080810E000000F102020107D
:101410000F00001010F8000000000020203F2020E6
:10142000000000700808088870000030282422217D
:101430003000003008888848300000182020201133
:101440000E000000C02010F8000000070424243F14
:10145000240000F8088888080800001921202011BD
:101460000E0000E0108888180000000F11202011E5
:101470000E0000380808C83808000000003F0000CF
:1014800000000070880808887000001C22212122BA
:101490001C0000E010080810E000000031222211BA
:1014A0000F00000000C0C00000000000003030004D
:1014B00000000000008000000000000080600000CC
:1014C0000000000080402010080000010204081005
:1014D0002000404040404040400004040404040414
:1014E00004000008102040800000002010080402C2
:1014F0000100007048080808F000000000303601C4
:101500000000C030C828E810E00007182724231482
:101510000B000000C038E0000000203C230202273E
:10152000382008F8888888700000203F202020118B
:101530000E00C030080808083800071820202010C6
:10154000080008F808080810E000203F20202010BC
:101550000F0008F88888E8081000203F202023208A
:10156000180008F88888E8081000203F20000300D1
:101570000000C03008080838000007182020221E8C
:10158000020008F808000008F808203F21010121A6
:101590003F20000808F8080800000020203F202015
:1015A000000000000808F8080800C08080807F0064
:1015B000000008F888C028180800203F20012638BD
:1015C000200008F8080000000000203F2020202014
:1015D000300008F8F800F8F80800203F003F003F0E
:1015E000200008F830C00008F808203F2000071845
:1015F0003F00E01008080810E0000F102020201025
:101600000F0008F808080808F000203F2101010138
:101610000000E01008080810E0000F1824243850DB
:101620004F0008F8888888887000203F2000030C4D
:101630003020007088080808380000382021212256
:101640001C00180808F8080818000000203F2000B7
:10165000000008F808000008F808001F20202020DB
:101660001F000878880000C83808000007380E01FD
:101670000000F80800F80008F800033C0700073CE9
:101680000300081868808068180820302C03032C99
:1016900030200838C800C83808000000203F20006B
:1016A000000010080808C83808002038262120202B
:1016B0001800000000FE020202000000007F40400F
:1016C0004000000C30C0000000000000000106389F
:1016D000C00000020202FE000000004040407F0007
:1016E00000000000040202020400000000000000EC
:1016F00000000000000000000000808080808080EA
:1017000080800002020400000000000000000000D1
:101710000000000080808080000000192422222226
:101720003F2008F8008080000000003F11202011B9
:101730000E000000008080800000000E112020209C
:101740001100000000808088F800000E1120201099
:101750003F200000808080800000001F2222222283
:101760001300008080F0888888180020203F202007
:1017700000000000808080808000006B949494932F
:10178000600008F8008080800000203F21000020D9
:101790003F2000809898000000000020203F20207B
:1017A0000000000000809898000000C08080807FCA
:1017B000000008F8000080808000203F24022D30C7
:1017C0002000000808F8000000000020203F202032
:1017D00000008080808080808000203F20003F20AB
:1017E000003F8080008080800000203F210000209A
:1017F0003F200000808080800000001F20202020EB
:101800001F00808000808000000080FFA120201148
:101810000E000000008080808000000E112020A0BB
:10182000FF80808080008080800020203F21200079
:101830000100000080808080800000332424242464
:101840001900008080E0808000000000001F202040
:1018500000008080000000808000001F20202010F9
:101860003F20808080000080808000010E300806CC
:10187000010080800080008080800F300C030C30DD
:101880000F0000808000808080000020312E0E310B
:101890002000808080000080808080818E7018060B
:1018A000010000808080808080000021302C222177
:1018B000300000000000807C020200000000003FB9
:1018C000404000000000FF00000000000000FF009A
:1018D00000000002027C800000000040403F000049
:1018E00000000006010102020404000000000000E4
:1018F0000000000014190008000000200C00000087
:10190000C4010008201900080C0000202C0700006A
:10191000E0010008000000000000000000000000DE
:040000050800018965
:00000001FF
