:020000040800F2
:1000000050040020F5040008F1010008F301000885
:10001000DF020008E3020008E70200080000000019
:10002000000000000000000000000000EB020008DB
:10003000ED02000800000000EF020008F1020008D5
:100040000F0500080F0500080F0500080F05000840
:100050000F0500080F0500080F0500080F05000830
:10006000F70100080F0500080F0500080F0500083C
:100070000F0500080F0500080F0500080F05000810
:100080000F0500080F0500080F0500080F05000800
:100090000F0500080F0500080F0500080F050008F0
:1000A0000F0500080F0500080F0500080F050008E0
:1000B0000F050008D30200080F0500080F0500080F
:1000C0000F0500080F0500080F0500080F050008C0
:1000D0000F050008430200087D0200080F05000814
:1000E0000F0500080F0500080F0500080F050008A0
:1000F0000F0500080F0500080F0500080F05000890
:100100000F0500080F0500080F0500080F0500087F
:100110000F0500080F0500080F0500080F0500086F
:100120000F0500080F0500080F0500080F0500085F
:10013000DFF80CD002F010FD004800474501000830
:10014000500400200EB501F0EBFF02F094FA02F02B
:10015000BBF948E002F0ADF8019002F008FC05465A
:100160000E460022204B2846314602F062FBCDE9C4
:10017000000102F0DDFB0A2190FBF1F201FB120A03
:1001800000221A4B2846314602F053FBCDE900010C
:1001900002F0CEFB0A2190FBF1F201FB120B284684
:1001A000314602F0C5FB04460A2094FBF0F00A2118
:1001B00090FBF1F201FB1200C7B20A2094FBF0F1B0
:1001C00000FB114000F0FF080AF0FF090BF0FF00F0
:1001D00002904A4641463846029B02F0E4F94FF449
:1001E0007A7001F0D3FEB5E70000244000005940CA
:1001F000704700BFFEE710B5042000F085FF01281E
:100200001ED100F092FF0A2001F0C0FE04213948FF
:1002100000F075FA68B90121374800F07DFA20B97D
:100220000121354800F085FA03E00121324800F051
:1002300082FA00BF04212F4800F061FA0028F9D0AB
:1002400010BD10B540212D4800F09DFE40F2255113
:100250002A4800F0A1FE80B1284800F01DFE284980
:10026000087008460178254800F012FE00BF802182
:10027000224800F07BFE0028F9D010BD10B54021C7
:10028000204800F080FE40F225511E4800F084FE18
:10029000F0B11C4800F000FE1B49087008211B4803
:1002A00000F047FA012001F071FE17480178154867
:1002B00000F0EEFD00BF8021124800F057FE00283C
:1002C000F9D0022001F062FE0821104800F033FA54
:1002D00010BD10B501210E4801F03AFE10BD00BF5F
:1002E000FEE700BFFEE700BFFEE7704770477047BC
:1002F0007047000000180140001001400038014024
:1003000000000020004400400100002000200140C7
:10031000000400400CB50020019000906C4800687B
:1003200040F480306A49086000BF6948006800F402
:10033000003000900198401C0190009818B9019875
:10034000B0F5A06FF1D16248006800F4003010B140
:100350000120009001E0002000900098012843D186
:100360005C48006840F010005A4908600846006880
:1003700020F0030008600846006840F002000860B2
:1003800053484068524948600846406848600846FB
:10039000406840F4806048600846406820F47C1063
:1003A00048600846406840F4E81048600846006825
:1003B00040F08070086000BF4548006800F00070A1
:1003C0000028F9D04248406820F0030040494860C6
:1003D0000846406840F00200486000BF3C48406862
:1003E00000F00C000828F9D10CBD10B5FFF792FF02
:1003F00010BD10B53648006840F00100344908606F
:100400000846406834490840314948600846006859
:10041000324908402E4908600846006820F48020D0
:1004200008600846406820F4FE0048604FF41F0052
:100430008860FFF7DAFF4FF000602949086010BDBF
:1004400010B5002100200022214B5B6803F00C0155
:1004500021B1042906D0082928D107E0214B224CDC
:10046000236027E01F4B204C236023E0184B5B6880
:1004700003F47010164B5B6803F48032022303EB25
:10048000904022B9194B4343174C23600DE0104BA9
:100490005B6803F4003323B1144B4343124C2360D5
:1004A00003E0104B4343104C236003E00D4B0E4C14
:1004B000236000BF00BF064B5B68C3F303130C4C03
:1004C000E15C094B1B68CB40074C236010BD00006A
:1004D00000100240002002400000FFF8FFFFF6FE7F
:1004E00008ED00E000127A000400002000093D0041
:1004F000080000200648804706480047FEE7FEE760
:10050000FEE7FEE7FEE7FEE7FEE7FEE7FEE7FEE7C3
:10051000F30300083101000810B50446CC488442BA
:1005200008D10121042000F02DFB0021042000F05F
:1005300029FB46E0C748844208D10121082000F089
:1005400021FB0021082000F01DFB3AE0C248844254
:1005500008D10121102000F015FB0021102000F02F
:1005600011FB2EE0BD48844208D10121202000F07B
:1005700009FB0021202000F005FB22E0B84884425E
:1005800008D10121402000F0FDFA0021402000F0B8
:10059000F9FA16E0B348844208D10121802000F026
:1005A000F1FA0021802000F0EDFA0AE0AE48844222
:1005B00007D10121801500F0E5FA0021A01500F017
:1005C000E1FA10BD10B50121084600F0DBFA002168
:1005D000012000F0D7FA10BD2DE9F04102460025B8
:1005E0000026002000230024002791F803C00CF00F
:1005F0000F0591F803C00CF0100CBCF1000F03D0F4
:1006000091F802C04CEA050591F800C0BCF1000F5A
:1006100031D0146800202BE04FF0010C0CFA00F3ED
:10062000B1F800C00CEA03069E4220D183004FF0CF
:100630000F0C0CFA03F7BC4305FA03FC4CEA040464
:1006400091F803C0BCF1280F06D14FF0010C0CFA51
:1006500000FCC2F814C00AE091F803C0BCF1480FD6
:1006600005D14FF0010C0CFA00FCC2F810C0401C80
:100670000828D1D31460B1F800C0BCF1FF0F34DDFD
:10068000546800202EE000F1080C4FF0010808FA31
:100690000CF3B1F800C00CEA03069E4221D183009E
:1006A0004FF00F0C0CFA03F7BC4305FA03FC4CEABD
:1006B000040491F803C0BCF1280F05D100F1080C27
:1006C00008FA0CF8C2F8148091F803C0BCF1480F86
:1006D00007D100F1080C4FF0010808FA0CF8C2F835
:1006E0001080401C0828CED35460BDE8F0814FF63E
:1006F000FF710180022181700421C17070470246A0
:10070000002093680B400BB1012000E000207047EF
:100710000146886880B2704702460020D3680B40CB
:100720000BB1012000E0002070470146C86880B28C
:10073000704701617047416170470AB1016100E093
:1007400041617047C16070474FF480320A43826153
:100750008161826182698269704702460020434B51
:1007600018684FF68073184040EA021008433F4B68
:10077000186070473E49C8617047F0B50A460023CB
:1007800000240021002500F00046B6F1004F02D100
:10079000364EF16901E0354E7168C0F3034583B20E
:1007A00000F44016B6F5401F08D121F070612F4EBD
:1007B000766826F070662D4F7E6012E000F4801699
:1007C000B6F5801F06D1032606FA05F4A14341F0D1
:1007D000706106E0460D360103FA06F6B14341F0BA
:1007E000706122B1460D360103FA06F6314300F07E
:1007F0000046B6F1004F02D11C4EF16101E01B4EE4
:100800007160F0BD30B500228B071C0F0F2303FA77
:1008100004F2164B08338C1053F824309343134CD6
:1008200008348D1044F8253023468C1053F82430BA
:100830008C07240F00FA04F423430C4C08348D1069
:1008400044F8253030BD0A49DC31086070470000AB
:1008500000080140000C014000100140001401405C
:1008600000180140001C0140002001400000014030
:1008700000002042DF48006840F00100DD490860C8
:1008800008464068DC490840DA4948600846006884
:10089000DA490840D74908600846006820F48020FB
:1008A00008600846406820F4FE0048604FF41F00CE
:1008B00088607047CF49096821F48031CD4A1160C2
:1008C0001146096821F480211160B0F5803F03D002
:1008D000B0F5802F0ED106E0C649096841F4803199
:1008E000C44A116007E0C349096841F4A021C14A24
:1008F000116000E000BF00BF704710B50146002244
:10090000002300204A11012A02D1BA4C236806E0D4
:10091000022A02D1B74C236A01E0B64C636A01F0A7
:100920001F02012494401C400CB1012000E0002073
:1009300010BD38B5002000900024002500BF3120F4
:10094000FFF7DBFF05460098401C00900098B0F5CB
:10095000A06F01D0002DF2D03120FFF7CEFF08B1FB
:10096000012400E00024204638BD01460020A14AB1
:10097000106820F0F80040EAC10010607047A049FC
:1009800008607047024600209A4B586820F47C109B
:1009900042EA01031843974B58607047984908662C
:1009A000704701460020934A506820F00300084336
:1009B000506070478F48406800F00C007047014657
:1009C00000208C4A506820F0F000084350607047C7
:1009D00001460020874A506820F4E06008435060D8
:1009E000704701460020834A506820F4605040EA76
:1009F000C1005060704729B17E4A527A02437D4B54
:100A00005A7204E07B4A527A82437A4B5A72704798
:100A10007B49D8310860704701460020754A50680C
:100A200020F440400843506070470021714A203252
:100A30001170704A82F82010012802D004280AD1CF
:100A400004E001216B4A2032117005E00521694A5A
:100A50002032117000E000BF00BF70476949086094
:100A600070476449096A0143624A116270476549E7
:100A700044390860704730B500210022002400236B
:100A80005C4D6D6805F00C0121B1042905D00829E1
:100A900023D105E05C4D056022E05B4D05601FE061
:100AA000544D6D6805F47012524D6D6805F4803434
:100AB000022505EB92421CB9544D554305600BE0ED
:100AC0004C4D6D6805F400351DB1504D5543056022
:100AD00002E04D4D5543056002E04B4D056000BFFF
:100AE00000BF444D6D6805F0F0010909484D6B5C8D
:100AF0000568DD4045603F4D6D6805F4E061090A19
:100B0000434D6B5C4568DD4085603A4D6D6805F48A
:100B10006051C90A3E4D6B5C4568DD40C560354D8E
:100B20006D6805F44041890B3A4D6B5CC568B5FBB7
:100B3000F3F5056130BD29B12E4A526902432D4BB0
:100B40005A6104E02B4A526982432A4B5A6170472A
:100B500029B1284A92690243264B9A6104E0254A4A
:100B600092698243234B9A61704729B1214AD26925
:100B70000243204BDA6104E01E4AD26982431D4BD6
:100B8000DA61704729B11B4AD2680243194BDA6017
:100B900004E0184AD2688243164BDA60704729B1E4
:100BA000144A12690243134B1A6104E0114A126994
:100BB0008243104B1A6170471249403908607047F0
:100BC0000F49C86470470B49C87170470948406AAB
:100BD00040F0807007494862704701460020054A8E
:100BE00092680A400AB1012000E0002070470149E4
:100BF00088727047001002400000FFF8FFFFF6FE09
:100C0000000042428004424200127A0000093D0086
:100C1000180000202800002010B50446FB4884423C
:100C200009D101218803FFF7ADFF00214FF4804077
:100C3000FFF7A8FF32E0F648844209D101214804B9
:100C4000FFF7ADFF00214FF40030FFF7A8FF25E0CC
:100C5000F048844209D101218804FFF7A0FF002158
:100C60004FF48020FFF79BFF18E0EB48844209D146
:100C70000121C804FFF793FF00214FF40020FFF784
:100C80008EFF0BE0E548844208D101210805FFF7FB
:100C900086FF00214FF48010FFF781FF10BD2DE982
:100CA000F04786B005460E460024A24600BFA14686
:100CB0000027B08900B100BF2F462C8A4CF6FF7088
:100CC0000440F08804432C82AC894EF6F3100440B3
:100CD000B08831890843718908430443AC81AC8AE8
:100CE0004FF6FF400440B0890443AC8201A8FFF7EF
:100CF000C2FEC648874202D1DDF810A001E0DDF84F
:100D00000CA0A88900F4004040B10AEBCA0000EB37
:100D10000A1031684900B0FBF1F807E00AEBCA009D
:100D200000EB0A1031688900B0FBF1F86420B8FBD1
:100D3000F0F004012009642101FB1089A88900F466
:100D4000004040B1322000EBC900B0FBF1F000F0F0
:100D50000700044308E0322000EB09106421B0FBD7
:100D6000F1F000F00F0004432C8106B0BDE8F087DD
:100D70004FF41651016000218180C18001810C2156
:100D8000418100218181704710B502460020108A00
:100D90004FF2FF0318400B884C8823438C88234371
:100DA000CC8823431843108210BD0021018041806C
:100DB0008180C180704721B1828942F400528281D2
:100DC00004E082894DF6FF731A4082817047F0B5C6
:100DD0000346002400260025002040F66A17B94289
:100DE00000D100BF1846C1F3421401F01F060127CD
:100DF00007FA06F5012C01D10C3004E0022C01D1D8
:100E0000103000E014301AB107682F43076002E089
:100E10000768AF430760F0BD1AB1838A0B43838232
:100E200002E0838A8B4383827047028A4FF6F07315
:100E30001A400282028A0A430282704782894FF274
:100E4000FF731A40828182890A438281704721B1EF
:100E5000828942F00202828104E082894FF6FD73AA
:100E60001A4082817047028A4FF6DF731A4002826D
:100E7000028A0A430282704721B1028A42F4804208
:100E8000028204E0028A4BF6FF731A400282704726
:100E9000C1F308028280704701468888C0F30800C9
:100EA0007047818941F0010181817047028BD2B284
:100EB0000283028B42EA012202837047028B02F412
:100EC0007F420283028B0A430283704721B1828AE8
:100ED00042F02002828204E0828A4FF6DF731A40D9
:100EE0008282704721B1828A42F01002828204E03D
:100EF000828A4FF6EF731A408282704721B1828A4C
:100F000042F00802828204E0828A4FF6F7731A40A8
:100F10008282704721B1828942F40042828103E0DB
:100F20008289C2F30E028281704721B1828A42F423
:100F30000062828204E0828A4FF2FF731A4082824A
:100F40007047828A4FF6FB731A408282828A0A4374
:100F50008282704721B1828A42F00202828204E0DA
:100F6000828A4FF6FD731A40828270470246002043
:100F7000B1F5007F00D100BF13880B400BB10120F9
:100F800000E00020704701F40072B2F5007F00D14C
:100F900000BFCA430280704770B502460024002398
:100FA0000025002040F66A16B14200D100BFC1F30F
:100FB000421501F01F03012606FA03F3012D02D1A9
:100FC0009689334006E0022D02D1168A334001E0B3
:100FD000968A33400C12012606FA04F4168834402F
:100FE00013B10CB1012000E0002070BD10B500224B
:100FF000002340F66A14A14200D100BF0A12012466
:101000009440A3B2DC43048010BD000000380140CE
:101010000044004000480040004C004000500040A8
:10102000002044490860091D0860091D0860091D69
:10103000086041483F4914310860704700213D492C
:101040008279002A3AD00A46126803689A430B460E
:101050001A600A1D126803689A430B1D1A60027910
:1010600011440A6803681A430A60324A0832126857
:1010700003689A432F4B08331A601A1D12680368DD
:101080009A432C4B0C331A604279102A0ED11A1F46
:10109000126803681A43274B08331A601A1D126836
:1010A00003681A43234B0C331A600DE0214942793F
:1010B00011440A6803681A430A6005E00279114482
:1010C0000A6803689A430A60704700210160017151
:1010D0000C21417100218171704716491031096856
:1010E0000143144A10321160704701460020114A32
:1010F000143212680A400AB1012000E00020704753
:101100000C49143108607047014600200022094B49
:101110001B6803EA0102074B14331B680B4013B131
:101120000AB1012000E00020704702491431086034
:101130007047000000040140FFFF0F0010B5044697
:10114000FE48844208D10121C014FFF71BFD002195
:10115000E014FFF717FDC4E0B4F1804F08D101217E
:101160000846FFF71CFD00210120FFF718FDB8E03D
:10117000F348844208D101210220FFF710FD00212D
:101180000220FFF70CFDACE0EE48844208D10121BB
:101190000420FFF704FD00210420FFF700FDA0E07C
:1011A000E948844208D101210820FFF7F8FC00211A
:1011B0000820FFF7F4FC94E0E448844208D10121C0
:1011C0001020FFF7ECFC00211020FFF7E8FC88E07E
:1011D000DF48844208D101212020FFF7E0FC0021F4
:1011E0002020FFF7DCFC7CE0DA48844208D10121B2
:1011F0004014FFF7C7FC00216014FFF7C3FC70E048
:10120000D548844209D10121C804FFF7BBFC002165
:101210004FF40020FFF7B6FC63E0D048844209D1C8
:1012200001210805FFF7AEFC00214FF48010FFF705
:10123000A9FC56E0CA48844209D101214805FFF7BC
:10124000A1FC00214FF40010FFF79CFC49E0C548C9
:10125000844208D101214020FFF7A1FC0021402059
:10126000FFF79DFC3DE0C048844208D10121802069
:10127000FFF795FC00218020FFF791FC31E0BB488F
:10128000844208D101218015FFF789FC0021A015B7
:10129000FFF785FC25E0B648844209D10121080406
:1012A000FFF770FC00214FF48030FFF76BFC18E073
:1012B000B048844209D101214804FFF763FC0021B2
:1012C0004FF40030FFF75EFC0BE0AB48844208D1DE
:1012D00001218804FFF756FC00214FF48020FFF71E
:1012E00051FC10BD00220288944B98420ED0994BBD
:1012F00098420BD0B0F1804F08D0914B984205D066
:10130000904B984202D0904B984204D14FF68F7385
:101310001A404B881A438D4B984207D08C4B984209
:1013200004D04FF6FF431A40CB881A4302808B88C3
:1013300083850B880385814B98420BD0854B98425F
:1013400008D08B4B984205D08A4B984202D08A4BEA
:10135000984201D10B7A038601238382704770B5CE
:10136000002400220023058C4FF6FE7635400584CC
:10137000028C8388048B4FF68F752C40B51E2C4051
:101380000D882C43751E2A400D892A434D882A4317
:101390006A4DA8420BD06F4DA84208D0744DA842A8
:1013A00005D0744DA84202D0734DA84213D14FF618
:1013B000F7752A404D892A434FF6FB752A408D88E0
:1013C0002A434FF6FF652B404FF6FF552B408D8982
:1013D0002B43CD892B4383800483CD88858602846B
:1013E00070BD70B5002400220023058C4FF6EF7607
:1013F00035400584028C8388048B48F6FF752C40A9
:101400004FF6FF452C400D884FF6FF7606EA05257E
:101410002C434FF6DF752A400D8906EA05152A434D
:101420004D8806EA05152A43444DA84202D0494D8D
:10143000A8421DD14FF67F752A404D894FF6FF76A1
:1014400006EA05152A434FF6BF752A408D8806EA3D
:1014500005152A434FF6FF352B404FF2FF752B4001
:101460008D8906EA85052B43CD8906EA85052B4340
:1014700083800483CD880587028470BD70B5002405
:1014800000220023058C4FF6FF6635400584028C50
:101490008388848B4FF68F752C404FF6FC752C405B
:1014A0000D882C434FF6FF552A400D894FF6FF76E5
:1014B00006EA05252A434D8806EA05252A431F4DDD
:1014C000A84202D0234DA8421DD14FF2FF752A40F9
:1014D0004D894FF6FF7606EA05252A434FF6FF357C
:1014E0002A408D8806EA05252A434EF6FF752B40D3
:1014F0004DF6FF752B408D8906EA05152B43CD89E6
:1015000006EA05152B4383808483CD888587028472
:1015100070BD70B5002200230024058C4EF6FF76C6
:1015200035400584038C8488828B48F6FF752A40F9
:101530004FF6FF452A400D8820E00000002C0140B6
:101540000004004000080040000C00400010004073
:101550000014004000340140004C014000500140A4
:101560000054014000180040001C004000200040D2
:101570000040014000440140004801404FF6FF7622
:1015800006EA05252A434DF6FF752B400D8906EA2C
:1015900005352B434D8806EA05352B43FA4DA84205
:1015A00002D0FA4DA84208D14BF6FF752C408D8928
:1015B0004FF6FF7606EA85152C4384808283CD881A
:1015C000A0F84050038470BD828B4FF2FF331A4065
:1015D0008283828B4FF6FF7303EA01231A438283CF
:1015E0007047F0B50C461546002200210026078CF6
:1015F0004EF6FF7C07EA0C070784828B018C4FF6BE
:10160000FF7707EA043640F6FF473A404FF6FF7788
:1016100007EA05273A434FF6FF7707EA03373A43CD
:10162000D94FB8420ED0D94FB8420BD0B0F1804F4D
:1016300008D0D74FB84205D0D64FB84202D0D64FC7
:10164000B84206D14DF6FF77394046F4805739430A
:1016500005E047F6FF57394044F480573943828309
:101660000184F0BD828B4FF6F3731A408283828B24
:101670000A4382837047F0B50C46154600220021CC
:101680000026078C4FF6FF6C07EA0C070784828B55
:10169000018C4FF6FF7707EA04264FF60C773A40A5
:1016A0004FF6FF7707EA03172F433A43B64FB84286
:1016B0000ED0B64FB8420BD0B0F1804F08D0B44F27
:1016C000B84205D0B34FB84202D0B34FB84206D1AA
:1016D0004FF6FF57394046F48077394305E04FF223
:1016E000FF57394044F48077394382830184F0BD49
:1016F000028B4FF2FF331A400283028B4FF6FF73C7
:1017000003EA01231A4302837047F0B50C461546DD
:10171000002200210026078C4FF6EF7C07EA0C0719
:101720000784028B018C4FF6FF7707EA041640F618
:10173000FF473A404FF6FF7707EA03373A434FF641
:10174000FF7707EA05273A438F4FB8420ED08F4FF5
:10175000B8420BD0B0F1804F08D08D4FB84205D0C1
:101760008C4FB84202D08C4FB84206D14FF6DF778B
:10177000394046F01007394305E04FF65F773940AE
:1017800044F01007394302830184F0BD028B4FF609
:10179000F3731A400283028B0A4302837047F0B549
:1017A0000C46154600220021068C4FF6FE773E407F
:1017B0000684028B018C4FF60C7632407E1C06EAC2
:1017C00003162E433243704EB0420ED06F4EB042DD
:1017D0000BD0B0F1804F08D06D4EB04205D06D4EA9
:1017E000B04202D06C4EB04206D14FF6FD76314089
:1017F00044F00106314305E04FF6F576314044F000
:101800000106314302830184F0BD70B505460C46E4
:101810005D4885420ED05D4885420BD0B5F1804FC2
:1018200008D05B48854205D05A48854202D05A48C4
:10183000854200D100E000BF208850B92389A288EA
:1018400061882846FFF7ABFFE1882846FFF79EFF37
:1018500025E0208804280AD12389A28861882846A7
:10186000FFF753FFE1882846FFF742FF17E0208883
:1018700008280AD12389A28861882846FFF7FBFE41
:10188000E1882846FFF7EEFE09E02389A2886188F7
:101890002846FFF7A6FEE1882846FFF795FE70BDB3
:1018A0002DE9F04105460C4600260127608808B95D
:1018B000022600E00026A088012801D1022700E0CE
:1018C00001272088A0B92389A28861882846FFF7CC
:1018D00066FFE1882846FFF759FF23893A463146DB
:1018E0002846FFF712FFE1882846FFF701FF13E0C3
:1018F0002389A28861882846FFF707FFE1882846E8
:10190000FFF7F6FE23893A4631462846FFF747FFA0
:10191000E1882846FFF73AFFBDE8F0810A884B8846
:101920001A438B881A43CB881A430B891A434B8975
:101930001A438B891A43A0F8442070474FF6FF7171
:10194000818000210180C1804180017270470021A7
:10195000018041808180C180018141818181C1817B
:101960007047002101804180012181800021C180D8
:10197000018170470021018041808180C180018107
:101980004181818170470000002C014000340140FA
:101990000004004000080040000C004021B1028813
:1019A00042F00102028004E002884FF6FE731A4002
:1019B0000280704731B1B0F8442042F40042A0F8F0
:1019C000442005E0B0F84420C2F30E02A0F8442001
:1019D00070471AB183890B43838102E083898B436B
:1019E000838170478182704741EA0203A0F8483042
:1019F00070471AB183890B43838102E083898B434B
:101A00008381704701894FF6F87211400181704758
:101A10000A46002101894FF68F7319401143018155
:101A2000704730B504460D4629462046FFF7F0FFC3
:101A3000208940F00700208130BD2DE9F0410446A7
:101A40000D4616461F46602D06D13B460122314603
:101A50002046FFF75AFE05E03B460122314620466C
:101A6000FFF79DFE29462046FFF7D2FF208940F070
:101A700007002081BDE8F08130B50C4600210189C6
:101A8000C9B24FF6FF7505EA0325154325432943DF
:101A9000018130BD2DE9F04105460E4617469846B6
:101AA000002443463A4631462846FFF7E5FF2C8995
:101AB0004FF6F870044044F007044FF68F7004406E
:101AC00044F070042C81BDE8F081F0B504460D4669
:101AD00016461F463B46324629462046FFF7CCFFB6
:101AE000208940F480402081F0BD018582827047CA
:101AF0000A46002101884FF68F7319401143018077
:101B00007047F0B50C4615461E4600210022002302
:101B10000189028B038C4FF6F877394021434FF649
:101B2000FC473A4040F201173A434FF6DD773B401D
:101B30004FF6FF7707EA06172F433B4301810283E5
:101B40000384F0BD0A460021018B4FF68F731940C4
:101B50001143018370470A460021018B48F6FF7349
:101B600019404FF6FF7303EA0223194301837047BC
:101B70000A460021818B4FF68F73194011438183F0
:101B800070470A460021818B48F6FF7319404FF6D3
:101B9000FF7303EA022319438183704721B102884E
:101BA00042F08002028004E002884FF67F731A4000
:101BB0000280704721B1828842F00402828004E0F2
:101BC00082884FF6FB731A408280704721B1828869
:101BD00042F00802828004E082884FF6F7731A40D0
:101BE0008280704721B1828842F00102828004E045
:101BF00082884FF6FE731A40828070470A460021A1
:101C0000018B4FF6F77319401143018370470A4661
:101C10000021018B4FF2FF7319404FF6FF7303EA67
:101C200002231943018370470A460021818B4FF636
:101C3000F77319401143818370470A460021818B55
:101C40004FF2FF7319404FF6FF7303EA0223194363
:101C5000818370470A460021018B4FF6FB731940C0
:101C60001143018370470A460021018B4FF6FF3371
:101C700019404FF6FF7303EA0223194301837047AB
:101C80000A460021818B4FF6FB7319401143818373
:101C900070470A460021818B4FF6FF3319404FF6FB
:101CA000FF7303EA02231943818370470A46002128
:101CB000018B4FF67F7319401143018370470A4629
:101CC0000021018BC1F30E014FF6FF7303EA0223DB
:101CD0001943018370470A460021818B4FF67F73B9
:101CE00019401143818370470A460021818BC1F35B
:101CF0000E014FF6FF7303EA0223194381837047F5
:101D00000A460021018C4FF6FD73194011430184EE
:101D100070470A460021018C4FF6F77319401143B2
:101D2000018470470A460021018C4FF6DF73194089
:101D30004FF6FF7303EA02131943018470470A4602
:101D40000021018C4FF67F7319404FF6FF7303EAB1
:101D500002131943018470470A460021018C4FF693
:101D6000FF5319404FF6FF7303EA0223194301841E
:101D700070470A460021018C4FF2FF7319404FF65D
:101D8000FF7303EA02231943018470470A460021C6
:101D9000018C4DF6FF7319404FF6FF7303EA0233CF
:101DA00019430184704730B5002301248C40A3B24D
:101DB000048C9C430484048C02FA01F5ADB22C43DC
:101DC000048430BD30B5002304248C40A3B2048CBD
:101DD0009C430484048C02FA01F5ADB22C430484C4
:101DE00030BD70B503460020002418461830012588
:101DF0008D40ACB21D8CA5431D8409B1082909D1C1
:101E000000EB6100056825F0700505600568154365
:101E100005600EE00D1FC5F34E052844056825F446
:101E2000E045056005684FF6FF7606EA0226354371
:101E3000056070BD21B1028842F00202028004E018
:101E400002884FF6FD731A400280704721B1028864
:101E500042F00402028004E002884FF6FB731A404D
:101E60000280704721B1828842F08002828004E0C3
:101E700082884FF67F731A408280704702884FF63F
:101E8000F7731A40028002880A43028070478288F2
:101E90004FF68F731A40828082880A43828070478F
:101EA00002894FF6F8731A40028102890A430281BF
:101EB000704702894FF67F731A40028102890A43F4
:101EC00002817047818470478185704781867047A1
:101ED0000187704781877047A0F8401070470288DB
:101EE0004FF6FF431A40028002880A43028070477F
:101EF0000146888E70470146088F70470146888FDB
:101F000070470146B1F8400070470146888C704721
:101F10000146088D704702460020138A0B400BB122
:101F2000012000E000207047CA430282704730B5AC
:101F30000246002000230024158A05EA0103958942
:101F400005EA010413B10CB1012000E0002030BD0E
:101F5000CA4302827047014601EBC1024FF0E02301
:101F60005A6101221A6100229A6100BF4FF0E022FB
:101F7000106900F001021AB100F48032002AF5D095
:101F800000224FF0E0231A619A617047014642F245
:101F900028324A434FF0E0235A6101221A6100229D
:101FA0009A6100BF4FF0E022106900F001021AB1FF
:101FB00000F48032002AF5D000224FF0E0231A61AD
:101FC0009A617047002107E0002201E0531C9AB299
:101FD0008242FBDB4B1C99B20429F5DB704700B54C
:101FE0008020C14908600520FFF7ECFF4020BE4972
:101FF00008600520FFF7E6FF8020BB49091D086047
:102000000520FFF7DFFF4020B749091D08600520C4
:10201000FFF7D8FF00BD00B54020B349091D086097
:102020000520FFF7CFFF8020AF49091D086005207C
:10203000FFF7C8FF4020AC4908600520FFF7C2FF4A
:102040008020A949086000BD10B58020A64908601D
:102050000220FFF7B7FF4020A34908600520FFF7E3
:10206000B1FFA1480838006800F0800008B10124E1
:1020700000E0002440209C49091D08600320FFF770
:10208000A1FF204610BD10B5044624B98020964912
:10209000091D086002E08020934908600220FFF7D4
:1020A00091FF4020904908600620FFF78BFF4020F9
:1020B0008D49091D08600320FFF784FF10BDF0B5AE
:1020C000044608250CE004F0800008B1012600E079
:1020D00000263046FFF7D7FF6006040E681EC5B223
:1020E000002DF0D1FFF7B0FF07463846F0BD70B5C0
:1020F000064608250DE0FFF7A7FF20B16006040E95
:1021000044F0010403E06006040E04F0FE04681EBF
:10211000C5B2002DEFD13046FFF7B5FF204670BDA8
:1021200008B501210820FEF713FDC020ADF800001E
:1021300014208DF8030003208DF8020069466A48D8
:102140001038FEF749FA402067490860802008608F
:1021500008BDFCB502462F2300BF00208DF8050006
:102160008DF804008DF803008DF8020001208DF831
:10217000010007208DF800002F23002505210024F1
:1021800009E0581EC3B2072C02DA601CC4B202E098
:102190000024481EC1B2505C80272741384008B94E
:1021A0000029EEDCA3F10800C5B21EE0052118E00D
:1021B000481E1DF8000000F0800018B1002901DD64
:1021C000012600E000261DF801004006000E0DF873
:1021D00001001DF801003044C0B20DF80100481E96
:1021E000C1B2FF29E4DB681EC5B2002DDED100219B
:1021F00006E0505C1DF8017078405054481CC1B294
:102200000529F6DD082BA8DC1078FCBD2DE9FC4F74
:1022100004460D464FF00009CA46CB466006040E40
:1022200000BF00BFFFF7F7FEABF1010000F0FF0BAE
:10223000BBF1000F00D136E0FFF7D1FE2046FFF7DB
:102240003EFF00B1EEE72846FFF739FF00B1E9E7AE
:10225000FFF7C5FE611CC8B2FFF731FF00B1E1E72F
:102260000020FFF744FF81460020FFF740FF824631
:102270000120FFF73CFF8046FFF7CDFE8DF80540BB
:102280008DF80450601CC0B28DF803008DF80290E8
:102290008DF801A000208DF800006846FFF759FF77
:1022A00006464645BDD100BF49EA0A273846BDE883
:1022B000FC8F2DE9F05F07210020FFF7A7FF834681
:1022C00000F029FB8046094A094B00F0B2FA0646A5
:1022D0004FF06632074B00F0A6FA044600F05AFBB6
:1022E00082465046BDE8F09F100C01407B14AE477B
:1022F000E17A943F6612714001E000BF401E002861
:10230000FBD1704700B5EF48006820F47060ED49DC
:1023100008600846006840F4407008600120EA49FF
:102320000860EA49C1F8A8010220FFF7E5FF002094
:10233000E749086000BD00B5E248006820F470601D
:10234000E04908600846006840F40060086000202A
:10235000DD4908600520FFF7CFFF00BFDC4880386B
:1023600000680028FAD10120D74908600220FFF751
:10237000C3FF0020D749C1F88C0100BD00B5D1488A
:10238000006820F47060CF4908600846006840F497
:10239000407008600020CC4908600220FFF7ACFFC5
:1023A0000020CA49C1F8A8010220FFF7A5FF0120BB
:1023B000C54908600220FFF79FFF0120C349C1F80B
:1023C000A80100BD00B50246BE48006820F4706058
:1023D000BC4908600846006840F44070086000236B
:1023E00018E00020B849086002F0010018B101208F
:1023F000B749086002E00020B54908600320FFF7F4
:102400007BFF52100120B04908600320FFF774FFE2
:10241000581CC3B2082BE4DB00BD30B5FFF772FFD8
:102420004220FFF7CFFFFFF786FF0120A849086091
:10243000A448006820F47060A2490860084600685B
:1024400040F400600860002517E000209E49086005
:1024500064101E20FFF750FF01209E49C1F88C0137
:102460009B488038006810B144F0800400E000BF51
:102470001E20FFF741FF681CC5B2082DE5DBFFF702
:102480005AFFFFF77BFF204630BD30B504460D46AE
:10249000172C00DD0024FFF735FF4420FFF792FFE3
:1024A000FFF749FFFFF76AFFFFF72CFF05F1C001B7
:1024B000C8B2FFF787FFFFF73EFF8749085DFFF7C8
:1024C00081FFFFF738FF30BD00B5FFF71BFF40204D
:1024D000FFF778FFFFF72FFFFFF750FFFFF712FF1F
:1024E000C020FFF76FFFFFF726FF3F20FFF76AFFCF
:1024F000FFF721FF3F207949087009788031C8B281
:10250000FFF760FFFFF717FF3F20FFF75BFFFFF7C5
:1025100012FF3F20FFF756FFFFF70DFFFFF72EFFDB
:10252000FFF7F0FE8F20FFF74DFFFFF704FFFFF7E7
:1025300025FF00BDF0B504460D4616461F46FFF7C1
:10254000E1FE4020FFF73EFFFFF7F5FEFFF716FF25
:10255000FFF7D8FEC020FFF735FFFFF7ECFE5E491E
:10256000085DFFF72FFFFFF7E6FE5B49485DFFF7C9
:1025700029FFFFF7E0FE5849885DFFF723FFFFF7CB
:10258000DAFE5549C85DFFF71DFFFFF7D4FEFFF7E0
:10259000F5FEFFF7B7FE8F20FFF714FFFFF7CBFE26
:1025A000FFF7ECFEF0BDF0B504460D4616461F469B
:1025B000FFF7A8FE4020FFF705FFFFF7BCFEFFF77F
:1025C000DDFEFFF79FFEC020FFF7FCFEFFF7B3FE26
:1025D0004149085DFFF7F6FEFFF7ADFE3E49495D54
:1025E0008031C8B2FFF7EEFEFFF7A5FE3A49885DDD
:1025F000FFF7E8FEFFF79FFE3749C85DFFF7E2FEF1
:10260000FFF799FEFFF7BAFEFFF77CFE8F20FFF77A
:10261000D9FEFFF790FEFFF7B1FEF0BD30B50446DE
:102620000D46FFF76FFE4020FFF7CCFEFFF783FE5D
:10263000FFF7A4FEFFF766FEC020FFF7C3FEFFF71B
:102640007AFE2549085DFFF7BDFEFFF774FE2249BB
:10265000495D8031C8B2FFF7B5FEFFF76CFEFFF7AA
:102660008DFEFFF74FFE8F20FFF7ACFEFFF763FEF6
:10267000FFF784FE30BD08B501210C20FEF768FA93
:102680004FF48060ADF8000010208DF803000320A7
:102690008DF8020069460B48001FFDF79DFF0820DA
:1026A000ADF8000010208DF8030003208DF8020023
:1026B00069460B48FDF790FF01200549091D086098
:1026C00008BD0000040C01408C0121420080214221
:1026D000A8812142000021422D0000202C00002072
:1026E000000801402DE9FE4F804681EA0300C00F3B
:1026F0000C46009021F0004123F00045B8EB0200A9
:10270000A94105D24046214690461C460B4602464A
:1027100023F00040104347D0270DC7F30A00C3F34E
:102720000A510290401A019040286BDAC3F313005B
:1027300040F4801B0098924620B10023D2EB030A9C
:1027400063EB0B0B01985946C0F14002504600F074
:102750003DF906460D4650465946019A00F055F996
:1027600010EB08006141002487EA115284EAE77304
:102770001A4340D0009A62B3019A012A4FEA0752E5
:1027800015DC001B61EB02014FF0004202EA075228
:10279000CDE90042001C41F5801132462B4600F085
:1027A0008CF903B0BDE8F08F40462146F9E7001BE5
:1027B00061EB0201001C41F5801300185B412018F9
:1027C000A2F5001747EB030140EAD570B6196D4139
:1027D00011E06D084FEA360645EAC0754FEA075228
:1027E000001B61EB0201001C41F5801149084FEA12
:1027F00030000019514132462B4603B0BDE8F04F7E
:1028000000F04CB90098012240000023D0EB0202F6
:1028100063EBE073009821464FEAE074B8EB0000E8
:1028200061EB0401E9E783F000435BE781F00041DD
:1028300058E72DE9FE4F81EA030404F0004421F03B
:10284000004100944FF0000B23F0004350EA0104D4
:102850005ED052EA03045BD0C3F30A54C1F30A55B5
:102860002C44A4F2F3340194A0FB0254C1F31301ED
:1028700041F48011C3F3130343F4801301FB0244BA
:1028800000FB034E840A970A44EA815447EA8357BF
:10289000A4FB076802958D0A05FB07854FEA932C78
:1028A00004FB0C542705029D4FEA065847EA1637E9
:1028B000B5EB08056EEB070C870E920E47EA811701
:1028C00042EA8312A7FB0201B6EB0B0164EB0004A2
:1028D0002B0D43EA0C335E1844EB1C50DA4651468C
:1028E000E7FB0201C5F313044FEA0B3343EA145329
:1028F0004FEA0432019C43EA0603A4F10C0402945B
:10290000009CCDE900B400F0D8F803B0BDE8F08F2A
:1029100000200146F9E70EB540F233410291002153
:10292000CDE900110A460B4600F0C7F803B000BD20
:1029300070B5C1F30A5201F000450024C1F3130140
:1029400040F2FF3341F480119A4201DA002070BD59
:1029500040F233439A42A2F2334203DC524200F087
:1029600044F800E090402C43F1D0404270BD00F0AC
:10297000004230F000400AD0C10D01F56071C0F393
:10298000160042EA0151C208400711437047002077
:102990000146704701F0004330B421F0004150EA95
:1029A000010206D00A0DA2F56072C1F31301002ADC
:1029B00002DC30BC00207047440F44EAC104C1006F
:1029C000E01830BC00EBC25000F031B8202A04DB24
:1029D000203A00FA02F1002070479140C2F1200332
:1029E00020FA03F3194390407047202A04DB203A71
:1029F00021FA02F00021704721FA02F3D040C2F11F
:102A000020029140084319467047202A06DBCB1765
:102A1000203A41FA02F043EAE07306E041FA02F399
:102A2000D040C2F120029140084319467047002966
:102A3000A8BF7047401C490008BF20F00100704744
:102A400010B4B0FA80FC00FA0CF050EA010404BFA4
:102A500010BC704749B1CCF1200421FA04F411FAFA
:102A60000CF118BF012121430843A3EB0C01CB1D3E
:102A70004FEA00614FEA102042BF002010BC7047AF
:102A800000EBC35010440029A4BF10BC7047401C89
:102A9000490008BF20F0010010BC704710B5141E9B
:102AA00073F1000408DA401C41F1000192185B4107
:102AB0001A4301D120F0010010BD2DE9F04D9246DE
:102AC0009B4611B1B1FA81F202E0B0FA80F22032F5
:102AD0009046FFF77BFF04460F4640EA0A0041EAB2
:102AE0000B0153465A46084313D0114653EA0100DE
:102AF00019D0C8F140025046FFF777FF05460E4651
:102B0000504659464246FFF761FF084305D0012071
:102B100004E020463946BDE8F08D0020054346EA32
:102B2000E0762C4337430A986305E40AA0EB0800DB
:102B30000022FD0A44EA47540A3002D5002001462B
:102B4000E9E7010510196941DDE908450019694106
:102B5000BDE8F04DA2E70000064C074D06E0E06836
:102B600040F0010394E8070098471034AC42F6D3D4
:102B7000FDF7E2FA9C2B0008BC2B000802E008C815
:102B8000121F08C1002AFAD170477047002001E0E7
:102B900001C1121F002AFBD170470000BC2B0008A6
:102BA000000000204C0000007C2B0008082C0008CE
:102BB0004C000020040400008C2B000800000000E2
:102BC00000A24A040000000000000000010203040B
:102BD00006070809000000000102030401020304C3
:102BE0000607080902040608CF3F065B4F666D7DA5
:102BF000077F6F777C395E797108484976380E50C7
:082C0000370073000000000022
:0400000508000131BD
:00000001FF
