:020000040800F2
:10000000480B00203102000855060008C905000809
:1000100051060008E504000857140008000000001D
:10002000000000000000000000000000B510000803
:10003000E904000800000000670C0008CD1100086A
:100040004B0200084B0200084B0200084B0200085C
:100050004B0200084B0200084B0200084B0200084C
:100060004B0200084B0200084B0200084B0200083C
:100070004B0200084B0200084B0200084B0200082C
:100080004B0200084B0200084B0200084B0200081C
:100090004B0200084B0200084B0200084B0200080C
:1000A0004B0200084B0200084B0200084B020008FC
:1000B0004B0200084B0200084B0200084B020008EC
:1000C0004B0200084B0200084B0200084B020008DC
:1000D0004B020008391200084B0200084B020008CE
:1000E0004B0200084B0200084B0200084B020008BC
:1000F0004B0200084B0200084B0200084B020008AC
:100100004B0200084B0200084B0200084B0200089B
:100110004B0200084B0200084B0200084B0200088B
:100120004B0200084B0200084B0200084B0200087B
:100130004B0200084B0200084B0200084B0200086B
:100140004B0200084B0200084B0200084B0200085B
:100150004B0200084B0200084B0200084B0200084B
:100160004B0200084B0200084B0200084B0200083B
:100170004B0200084B0200084B0200084B0200082B
:100180004B0200084B02000800F002F800F041F8B2
:100190000AA090E8000C82448344AAF10107DA45E2
:1001A00001D100F036F8AFF2090EBAE80F0013F0F3
:1001B000010F18BFFB1A43F0010318475833000022
:1001C00078330000103A24BF78C878C1FAD85207B3
:1001D00024BF30C830C144BF04680C6070470000C1
:1001E0000023002400250026103A28BF78C1FBD840
:1001F000520728BF30C148BF0B607047642900F028
:100200007980002070471FB501F09AFD1FBD10B521
:1002100010BD00F037F91146FFF7F5FF01F0B4F912
:1002200000F055F903B4FFF7F2FF03BC01F015F934
:100230000948804709480047FEE7FEE7FEE7FEE77A
:10024000FEE7FEE7FEE7FEE7FEE7FEE704480549B6
:10025000054A064B70470000D111000889010008CB
:1002600048050020480B00204807002048070020D0
:10027000704700000FB4044910B503AA029800F0BB
:10028000D3F810BC5DF814FB040000202DE9F04108
:100290000E460446002020622046E168884730B3BD
:1002A000252805D0D4E901219047206A401CF2E7B7
:1002B000E168204600278847050018D0A5F14100D5
:1002C000192802D820354FF40067324629462046C7
:1002D0002760FFF793FF40B1012804D0F61D26F0F8
:1002E00007060836D8E7361DD6E72846DAE7206A3B
:1002F000BDE8F0812DE9F04106460024106875291B
:10030000314616A510D0AFF30080002802DA404233
:1003100013A507E031688A0701D512A502E0490755
:1003200004D511A5012401E0AFF3008000210A22C9
:1003300006F1240709E0B0FBF2FCB0FBF2F302FB8C
:100340001C00303078541846491C0028F3D123464D
:100350002A463046BDE8F04100F00CB8000000002D
:100360002D0000002B0000002000000070477047A7
:10037000704770472DE9F0470D469946924604466E
:1003800000F124080168880604D5E06921F0100115
:10039000216000E00120A84201DD471B00E00027AA
:1003A000A1697A1902EB0900081AA0612078C00639
:1003B00002D42046AFF30080002608E0D4E90121F2
:1003C0001AF806009047206A401C761C20624E45B1
:1003D000F4DB2078C0060AD52046AFF3008006E0A3
:1003E000D4E9012130209047206A401C2062381E49
:1003F000A7F10107F4DC07E0D4E9012118F80500B2
:100400009047206A401C2062281EA5F10105F3DCFC
:100410002046AFF300802078000602D50220BDE818
:10042000F0870120FBE70000074B70B50D467B44C9
:1004300000F011F80446284600F020F810B14FF003
:10044000FF3070BD204670BD3B11000001694A1CA1
:1004500002610878704700B58FB0CDE90131002105
:10046000059105497944CDE9031011466846FFF727
:100470000DFF0FB000BD0000E5FFFFFF007B00F0A7
:1004800080007047754600F029F8AE4605006946C1
:10049000534620F00700854618B020B5FFF7D6FE7A
:1004A000BDE820404FF000064FF000074FF0000875
:1004B0004FF0000B21F00701AC46ACE8C009ACE8F6
:1004C000C009ACE8C009ACE8C0098D4670470446D5
:1004D000AFF300802046FFF7A5FE000000487047FC
:1004E000E404002000BFFEE77047F0B50A46002193
:1004F0000023002400BF3DE0012505FA01F3156843
:1005000005EA03049C4234D105684F000326BE402F
:10051000B543056015794E00B54006683543056062
:100520001579012D02D01579022D16D185684F005D
:100530000326BE40B543856055794E00B5408668B8
:1005400035438560456801268E40B5434560456862
:1005500096798E40B6B235434560C5684F00032694
:10056000BE40B543C560D5794E00B540C668354339
:10057000C560491C1029BFD3F0BDF0B5002300248D
:100580004D07ED0E02FA05F3CE1000F1200555F8E7
:1005900026504E07F70E0F26BE40B543CF1000F190
:1005A000200646F82750CE1000F1200555F82650B9
:1005B00045EA0304CE1000F1200545F82640F0BDC1
:1005C000018370474161704700BFFEE71CB5012100
:1005D000112000F049FB1C20009000208DF8040041
:1005E00003208DF8050001208DF8070069460648B4
:1005F000FFF77BFF0120009002208DF8070069467D
:100600000248FFF772FF1CBD0010024000000240CC
:100610001CB50121202000F027FB4FF4C0600090A2
:1006200001208DF8040000208DF8060003208DF8CD
:10063000050001208DF8070069460448FFF755FFC3
:100640004FF4C0610148FFF7BBFF1CBD001402401E
:1006500000BFFEE77047000070B5002100230F22A5
:10066000C4781CB3174C246804F4E064C4F5E06457
:10067000C4F30721C1F10404E3B20A4144789C4069
:10068000E1B28478144021430C07210E0E4C05780A
:100690006155047804F01F050124AC4005786D1104
:1006A000AD0005F1E025C5F8004109E0047804F04B
:1006B0001F050124AC40054D0678761145F826400B
:1006C00070BD00000CED00E000E400E080E100E01F
:1006D00002490143024A1160704700000000FA0518
:1006E0000CED00E070B500240CE0002506E00020D1
:1006F000074901EBC5010855681CC5B2802DF6DB22
:10070000601CC4B2082CF0DB00F054F970BD00008E
:100710001C00002070B5044604F00F051248006864
:1007200020F47070104908600846006840EA85109F
:1007300008604FF6FF7000EA85110B481438FFF788
:1007400041FFC4F3001009490860C4F34010084990
:10075000C1F89802C4F3801006490860E009064910
:10076000C1F8980270BD000014080240AC0241427A
:10077000008040429402424200004242F0B51446DA
:1007800000267F2801DC3F2900DDF0BD0B46CF1796
:1007900001EB5777FF10C7F10707FAB2CF1701EB4C
:1007A0005777FF10A1EBC707FDB2C5F1070701237B
:1007B000BB40DEB24CB10A4B03EBC0039B5C33433E
:1007C000074F07EBC007BB5408E0054B03EBC00322
:1007D0009B5CB343024F07EBC007BB5400BFD4E799
:1007E0001C0000202DE9F04706460F46904699462A
:1007F000DDF820A034460CE03D4606E0524629468E
:100800002046FFF7BBFF681CC5B24D45F6DD601CF6
:10081000C4B24445F0DD00F0CDF8BDE8F08700003B
:100820001CB501215F2000F01FFA1020009001206C
:100830008DF8040000208DF8060003208DF80500D7
:1008400001208DF8070069464E48FFF74EFEC02094
:10085000009069464C48FFF748FE4FF43C6000901A
:1008600069464A48FFF741FEC02000906946484863
:10087000FFF73BFE6020009069464648FFF735FED3
:100880004FF40040009069464348FFF72EFE0120D8
:10089000424908604249C1F89C0242490860424905
:1008A0000860002041490860642000F0F7FD012045
:1008B0003F49C1F8BC020021AE2000F057F90021E9
:1008C000D52000F053F90021502000F04FF900210D
:1008D000A82000F04BF900213F2000F047F900214B
:1008E000D32000F043F90021084600F03FF9002131
:1008F000402000F03BF900218D2000F037F9002165
:10090000142000F033F90021202000F02FF90021FD
:10091000022000F02BF90021A12000F027F900218E
:10092000C02000F023F90021DA2000F01FF9002197
:10093000122000F01BF90021812000F017F900219E
:10094000EF2000F013F90021D92000F00FF9002169
:10095000F12000F00BF90021DB2000F007F9002165
:10096000302000F003F90021A42000F0FFF800215E
:10097000A62000F0FBF80021AF2000F0F7F8FFF709
:10098000B1FE1CBD0000024000040240000802400D
:10099000000C024000100240001802409002404249
:1009A000008041429C82404298824142BC024342C4
:1009B0000000434270B500241CE004F1B001C8B24D
:1009C000002100F0D3F80021084600F0CFF8002104
:1009D000102000F0CBF8002508E0084901EBC50124
:1009E000085D012100F0C2F8681CC5B2802DF4DB5F
:1009F000601CC4B2082CE0DB70BD00001C000020AD
:100A00002DE9F84F80460F4616461C46BA4620464A
:100A1000E31704EB5373DB1021464FEAE47C04EB4D
:100A20005C7C4FEAEC0CA4EBCC0CBCF1000F02D0C8
:100A30004FF0010C01E04FF0000C6344224604EB40
:100A4000D27C4FEA6C0C03FB0CF303F0FF0BA6F116
:100A50002000C6B200254EE00C2C07D106EB460064
:100A6000274901EB8000405D009013E0102C05D178
:100A7000244800EB0610405D00900BE0182C07D1D5
:100A800006EBC600204901EB8000405D009001E0CC
:100A9000BDE8F88F4FF0000927E0009800F08000D3
:100AA00028B1394640460A9AFFF768FE09E00A98DD
:100AB00008B9012000E00020024639464046FFF711
:100AC0005DFE00984006000E0090781CC7B2A7EBB0
:100AD0000A00A04205D1574608F1010000F0FF08C6
:100AE00006E009F1010000F0FF09B9F1080FD4DBBD
:100AF00000BF681CC5B25D45AEDB00BFC8E70000A3
:100B0000541D0008C8210008B8270008F8B506469B
:100B10000F4615461C4621E004EBD4714910C1F183
:100B20008001B14202DA00263819C7B2C4F1400090
:100B3000B84204DA002006460746FFF7D3FD01203D
:100B400000902A78234639463046FFF759FF204661
:100B500004EBD07106EB6101CEB26D1C28787E28C3
:100B600002DC28782028D7DAF8BD000070B50546E9
:100B70000C462846FFF7CEFD0748046000200749D1
:100B8000C1F89C0206490860012008600549086018
:100B90000549C1F8980270BD9882414200804042E8
:100BA000900240429C82404200804142FCB5024695
:100BB0002F2300BF00208DF805008DF804008DF86C
:100BC00003008DF8020001208DF8010007208DF848
:100BD00000002F2300250521002409E0581EC3B280
:100BE000072C02DA601CC4B202E00024481EC1B225
:100BF000505C80272741384008B90029EEDCA3F17A
:100C00000800C5B21EE0052118E0481E1DF80000CE
:100C100000F0800018B1002901DD012600E0002667
:100C20001DF801004006000E0DF801001DF801003E
:100C30003044C0B20DF80100481EC1B2FF29E4DB08
:100C4000681EC5B2002DDED1002106E0505C1DF803
:100C5000017078405054481CC1B20529F6DD082BBC
:100C6000A8DC1078FCBD704729B1064A126802431F
:100C7000044B1A6004E0034A12688243014B1A6075
:100C8000704700003038024029B1064A126802431A
:100C9000044B1A6004E0034A12688243014B1A6055
:100CA0007047000044380240F0B5002100220024C3
:100CB000022500260223324F3F6807F00C0121B1C4
:100CC000042905D0082937D105E02E4F076036E00A
:100CD0002D4F076033E02A4F3F1F3F68C7F3805610
:100CE000274F3F1F3F6807F03F036EB1264FB7FB0A
:100CF000F3F7DFF88CC0ACF1040CDCF800C0CCF3E7
:100D0000881C07FB0CF40CE01E4FB7FBF3F7DFF871
:100D100070C0ACF1040CDCF800C0CCF3881C07FBFD
:100D20000CF4174F3F1F3F68C7F301477F1C7D003E
:100D3000B4FBF5F7076002E0124F076000BF00BF89
:100D40000F4F3F6807F0F0010909104F7A5C076800
:100D5000D74047600A4F3F6807F4E051890A0B4FBC
:100D60007A5C4768D7408760054F3F6807F4604169
:100D7000490B064F7A5C4768D740C760F0BD00005A
:100D8000083802400024F40000127A000A00002013
:100D900010B50446204600F09DFB10BD1CB5012196
:100DA0004020FFF761FF142000F078FBC020009086
:100DB00001208DF8040000208DF8060003208DF836
:100DC000050069460448FFF790FB402002491831AE
:100DD0000880802008801CBD000402402DE9FC5FD3
:100DE00004460D464FF00009CA46CB466006040E85
:100DF00000BF00BF00F03EF9ABF1010000F0FF0BB7
:100E0000BBF1000F00D136E000F010F9204600F0F1
:100E1000F3F800B1EEE7284600F0EEF800B1E9E79C
:100E200000F004F9611CC8B200F0E6F800B1E1E797
:100E3000002000F07DF88146002000F079F882461D
:100E4000012000F075F8804600F014F98DF8054097
:100E50008DF80450601CC0B28DF803008DF802902C
:100E60008DF801A000208DF800006846FFF79EFE77
:100E700006464645BDD100BF49EA0A273846BDE8C7
:100E8000FC9F000010B52DED088B07210020FFF717
:100E9000A5FF044600F058FD41EC1B0B9FED0D0B28
:100EA00053EC102B00F064FD41EC1A0B9FED0B0B83
:100EB00053EC102B00F05AFE41EC190B00F06AFCC9
:100EC00008EE100ABDEEC80A10EE100ABDEC088B41
:100ED00010BD00007B14AE47E17A943F66666666FB
:100EE0006612714010B500F03DF80520FFF750FF85
:100EF00080200E4908800220FFF74AFF40200B495E
:100F000008800520FFF744FF08480838006800F013
:100F1000800008B1012400E0002440200349891C1E
:100F200008800320FFF734FF204610BD180402405C
:100F300070B5064608250DE0FFF7D4FF20B1600626
:100F4000040E44F0010403E06006040E04F0FE0405
:100F5000681EC5B2002DEFD1304600F029F82046BA
:100F600070BD00001CB58020009000208DF80400AA
:100F700001208DF8070069460148FFF7B6FA1CBD4D
:100F8000000402401CB58020009001208DF8040070
:100F900000208DF8060003208DF8050001208DF853
:100FA000070069460148FFF7A0FA1CBD0004024093
:100FB00010B50446FFF7E6FF0520FFF7E9FE1CB970
:100FC00080200C49088003E080200A49891E08809F
:100FD0000220FFF7DDFE40200649891E088006201A
:100FE000FFF7D6FE4020034908800320FFF7D0FE1C
:100FF00010BD00001A0402402DE9F0410446082506
:101000000CE004F0800008B1012600E00026304624
:10101000FFF7CEFF6006040E681EC5B2002DF0D1AA
:10102000FFF760FF07463846BDE8F08110B5FFF7CF
:10103000A9FF0520FFF7ACFE80200D4908800520A0
:10104000FFF7A6FE40200A4908800520FFF7A0FE12
:1010500080200749891C08800520FFF799FE402061
:101060000349891C08800520FFF792FE10BD00008F
:101070001804024010B5FFF785FF0520FFF788FE32
:1010800040200B4908800520FFF782FE8020084998
:1010900008800520FFF77CFE40200549891E088056
:1010A0000520FFF775FE80200149891E088010BDCC
:1010B0001A040240704700000CB500200190009017
:1010C0003448006840F480303249086000BF31483D
:1010D000006800F4003000900198401C01900098D6
:1010E00018B90198B0F5A04FF1D12A48006800F472
:1010F000003010B10120009001E000200090009825
:10110000012846D123484030006840F080502149F2
:10111000403108602048006840F440401E490860A3
:101120001C48083000681B49083108600846006800
:1011300040F4004008600846006840F4A050086091
:101140001648091F0860081F006840F08070091FDA
:10115000086000BF0F48006800F000700028F9D058
:1011600040F205700E4908600A480830006820F017
:1011700003000849083108600846006840F0020092
:10118000086000BF03480830006800F00C00082821
:10119000F8D10CBD003802400070004008544007F0
:1011A000003C0240042808D14FF0E021096941F0D9
:1011B00004014FF0E022116107E04FF0E0210969DE
:1011C00021F004014FF0E0221161704770470000E8
:1011D00010B51548006840F47000134908601348C2
:1011E000006840F001001149086000200F490831F3
:1011F00008600E4800680E4908400C4908600D4818
:10120000091D0860081F006820F48020091F08607D
:10121000002006490C310860FFF74EFF4FF00060D8
:1012200001498039086010BD88ED00E000380240B7
:10123000FFFFF6FE1030002410B540F225511D4886
:1012400000F04AF810B31B4800F000F9C4B21A4885
:10125000008800F40040C8B91748008800F48040B6
:1012600060B10A2C03D000201349088020E0124806
:10127000008840F400401049088019E00D2C06D188
:101280000D48008840F480400B49088010E00A486F
:101290000088C0F30D0009490C5407480088401C21
:1012A0000549088008460088C72801DD002008801D
:1012B00010BD000000100140080000201C040020A8
:1012C00021B1828942F40052828104E082894DF684
:1012D000FF731A408281704770B5024600240023D4
:1012E0000025002040F66A16B14200D100BFC1F3CC
:1012F000421501F01F03012606FA03F3012D02D166
:101300009689334006E0022D02D1168A334001E06F
:10131000968A33400C12012606FA04F416883440EB
:1013200013B10CB1012000E0002070BDF0B5034600
:10133000002400260025002040F66A17B94200D19B
:1013400000BF1846C1F3421401F01F06012707FA37
:1013500006F5012C01D10C3004E0022C01D1103033
:1013600000E014301AB107682F43076002E00768F5
:10137000AF430760F0BD00002DE9FF4705460E466C
:101380000024A14600BFA046B08900B100BF2C8A4E
:1013900024F44054F08804432C82AC8941F20C6060
:1013A0008443B08831890843718908430443AC8180
:1013B000AC8A24F44074B0890443AC826846FFF7D9
:1013C00073FC2048854202D01F48854202D1DDF8D7
:1013D0000C9001E0DDF80890A88900F4004040B1CD
:1013E00009EBC90000EB091031684900B0FBF1F7C7
:1013F00007E009EBC90000EB091031688900B0FB78
:10140000F1F76420B7FBF0F004012009642101FB2F
:101410001078A88900F4004040B1322000EBC800E9
:10142000B0FBF1F000F00700044308E0322000EBCD
:1014300008106421B0FBF1F000F00F0004432C8190
:10144000BDE8FF8700100140001401400146888874
:10145000C0F30800704700BFFEE700BF7047000000
:1014600010B504466FF00400FFF79CFEE11704EB93
:101470005171C1F3C701074A11701046007800EBA3
:101480004001C1EBC0104FF6FF7101EAC0000249F4
:10149000088010BD000000200200002070B5044646
:1014A0004FF4077094FBF0F0C6B24FF4077094FB52
:1014B000F0F100FB114085B205E04FF4077000F039
:1014C0002FF8701EC6B2002EF7D115B1284600F0D5
:1014D00027F870BD0146114A12784A434FF0E023C5
:1014E0005A6100229A611A46126942F001021A6199
:1014F00000BF4FF0E022106900F001021AB100F4C1
:101500008032002AF5D04FF0E022126922F0010269
:101510004FF0E0231A6100229A617047000000201A
:101520000146114A12884A434FF0E0235A610022D3
:101530009A611A46126942F001021A6100BF4FF027
:10154000E022106900F001021AB100F48032002A92
:10155000F5D04FF0E022126922F001024FF0E023B3
:101560001A6100229A6170470200002000BF054AFC
:10157000128802F04002002AF9D0C2B2014B9A80D0
:101580007047000000100140B6B000BF1E2700BF2A
:1015900000BF00BF0020339034903590A820FFF7A3
:1015A0005FFFFFF713F8FFF7F9FB4FF4A060FFF7B9
:1015B0008FF8A820FFF754FF4FF4E13000F094F8C3
:1015C000FFF726F84FF4A060FFF782F8A820FFF796
:1015D00047FF4FF4E13000F087F8FFF719F8FFF705
:1015E0001FF90C2331A200210846FFF78FFA0C23C4
:1015F00030A210210020FFF789FA0C2330A220210D
:101600000020FFF783FA0C2330A230210020FFF7DF
:101610007DFAFFF7CFF947E02F48008800F400403B
:1016200000282FD02C48067800240CE02B48005DC1
:10163000B32806D12949601C085CB32801D1A01C3D
:10164000C5B2601CC4B2B442F0DB00203F237B2251
:10165000014600904020FFF7C5F8002407E01F482E
:10166000405D01A90855601CC4B2681CC5B2B542F2
:10167000F5DB0C2301AA20214020FFF747FA0020C8
:1016800015490880FFF796F9002404E0002001A91D
:101690000855601CC4B2642CF8DDFFF7F3FB074665
:1016A00039460FA0FEF7E6FDB6E7000054656D7001
:1016B0003A0000004964656E746974793A0000006C
:1016C000585F6572726F723A00000000595F657270
:1016D000726F723A00000000080000201C04002015
:1016E000256420200A00000010B588B004460121BE
:1016F0000846FFF7B9FA01211020FFF7C5FA0722C3
:1017000009212248FEF739FF07220A211F48FEF768
:1017100034FF4FF4C060069002208DF81C008DF855
:101720001D0000208DF81E0001208DF81F0006A965
:101730001648FEF7DAFE02940020ADF80C00ADF872
:101740000E00ADF81000ADF814000C20ADF812003A
:1017500002A90F48FFF710FE01210D48FFF7B0FD69
:10176000012240F225510A48FFF7E0FD25208DF8BF
:10177000040003208DF805008DF8060001208DF887
:10178000070001A8FEF768FF08B010BD0000024086
:101790000010014021F00042A2F16052B2F5801F1A
:1017A00001F0004328BFD2F17F6C0BD95FEA001C27
:1017B00043EAC20242EB507018BF704728BF20F0C6
:1017C00001007047B2F5801FBCBF184670474FEA52
:1017D000410C1CF5001F02D2084600F0B6BA70B5E5
:1017E00000F070F900000089FFF7F6BF4FF00040ED
:1017F000A0F580007047000010B591EA030F48BFC4
:1018000083F0004300F1BA81841A71EB030C05D216
:10181000121943EB0C03001B61EB0C01DFF824E110
:101820004FEA1154A4EB135C1EEA430F18BF9EEA63
:10183000445F73D023EA0E03DCF1200E21EA045149
:1018400043F4801332D322FA0CFE10EB0E0023FA7D
:101850000CFE41EB0E01CCF1200E03FA0EFE10EB54
:101860000E0051F10001B1F5801FCCF1200E32D2F3
:1018700001EB045112FA0EF2BDE8104058BF704758
:10188000401C38BF5FEA420218BF7047002814BFEF
:1018900020F0010041F100014FEA410313F5001F60
:1018A00038BF7047A1F1C04100F05AB9012A43EB9B
:1018B0000302ACF1200CDCF11F0E32BF4FF0000E22
:1018C00023FA0CF310EB030041EB0451B4EB115F6E
:1018D000D0D0A1EB045101F5801149085FEA300036
:1018E00001EB04510ED350F1000038BF12FA0EFE86
:1018F00008D1BDE81040C9E7401C38BF5FEA42028A
:10190000CAD1C3E7BDE810404FEA410313F5001FF9
:1019100038BF7047A1F1C04100F022B99EEA445F90
:1019200008D011EA5E0FBDE8104004BF01F000418D
:1019300000207047BDE8104070B500F0C3F800BF4C
:1019400064FBBE3E0000E0FFB0FA80F310FA03F142
:101950000AD0C3F11D0303F580634FEA41504FEAFB
:10196000035202EBD12170474FF000007047000096
:10197000DFF848C170B51CEA111E1EBF1CEA131522
:101980009EEA0C0F95EA0C0F00F06F8081EA0304C9
:1019900023EA4C134EEAD47E21EA4C1141F4801123
:1019A00043F48013AE44A1FB024CA0FB0365AEF1EF
:1019B0007F7E361955EB0C05A1FB034C4CF100035F
:1019C000A0FB021C16EB0C06654153F10003094213
:1019D00018BF46F0010613F4007F0BD14FEA033124
:1019E0004FEA0530340341EA155140EA16506FF0D2
:1019F00003020AE04FEAC3214FEAC520F40241EA9C
:101A0000555140EA56506FF0020202EB2E4201EBB4
:101A1000025585EACE710AD05FEA440C18BF24F063
:101A2000004450F1000041F1000120EAD47040F27E
:101A3000FE7C624500D270BDA84214BF4FF08044C6
:101A40004FF04044002E08BF0024BEF1806FA8BFB5
:101A5000A1F1C041BDE8704080F282804FF00000EB
:101A600001F1C04101F0004170479EEA0C0F0CEA01
:101A7000131518BF95EA0C0F06D04FF0000081EA4D
:101A8000030E0EF0004170BD00F01CF88900013E0D
:101A900000F007B800F009B84FEA430C5FEA5C5C5D
:101AA00008D081EA030100F05BB84FEA410C5FEA1D
:101AB0005C5CF6D14FF00000014970470000FF0761
:101AC0000000F87F0EF1020E2EF0030E5EF8046B9C
:101AD000364205D4012A43EB030515F5001F12D841
:101AE000012841EB010C1CF5001F0CD80ED14FEA68
:101AF000D17C15F5001F0CEB4C0C0CF1020C08BF4F
:101B00004CEBD37C04E04FF0080C01E04FEAD37CAF
:101B10000CEB4C0526FA05F606F00706B6F1040CA8
:101B200006D20EEB860CBDE870404CF0010C60470D
:101B3000DFE80CF0090B02024FF000414FF000000B
:101B4000A1F5002170BD19461046012851EB010492
:101B500018BFD4F5001484BF002001F0004170BD0F
:101B60000808A0F500114FEA3101704710B591EA5D
:101B7000030F48BF83F000433FF546AE841A71EB74
:101B8000030C07D212198CF0004C43EB0C03001B22
:101B900061EB0C01DFF8A4E14FEA1154A4EB135CF4
:101BA0001EEA430F18BF9EEA445F00F0B08023EAAC
:101BB0006E03524221EA0451C3EB6E0338BF5B1E31
:101BC000DCF1200E25D322FA0CFE10EB0E0043FAB6
:101BD0000CFE41EB0E01CCF1200E03FA0EFE10EBD1
:101BE0000E0051F10001CCF1200E29D412FA0EF2B0
:101BF00001EB0451BDE8104058BF7047401C1CBFAA
:101C0000B2F1004F704700280CBF491C20F00100C2
:101C1000704712EB020E43EB030218BF4FF0010EA8
:101C20004EEA4202ACF1200CDCF11E0E54D943FA0C
:101C30000CFE10EB0E0051F1FF31CCF11E0ED5D58C
:101C40000EF1010E12FA0EFE404141EB010101EBD3
:101C5000445C5FEA5C5C10D910EBDE7001EB045170
:101C600038BFBEF1004FBDE8104018BF70470028D4
:101C70000CBF491C20F00100704730D24FEAD42C31
:101C800011F5001124F400641BD0B1FA81F20B3A73
:101C9000A41AA41ED2F12003914030FA03F3194391
:101CA000904001EBCC71002C01EB0451BDE81040D9
:101CB000A8BF704701F1C0414FF0000001F00041A2
:101CC0007047B0FA80F310FA03F100D110BDE41AA6
:101CD000173C4805C90AE4E701EB045110BD49105F
:101CE00001EB0451BDE810404FEA300002E04FF034
:101CF000000170474A0008BF0042F8D0B2F5001F4B
:101D000028BF704701F000414FF0000070479EEA85
:101D1000445F07D011EA5E0FBDE8104004BF002108
:101D200000207047BDE8104070B5FFF7CBFE00BF44
:101D300040DFF63E83F00041104670470000E0FFB0
:101D40004FF04070E1EE100A7047FF2141EAD05099
:101D5000C005704700000000000000000000000007
:101D6000000000003F4000000000000000003000C4
:101D7000400030004000000009000BC03D000BC0D7
:101D80003D00090018C024407FE02240318000005F
:101D9000180024C01B000D803240018003801C40CD
:101DA00027401C8007400040100060000000000039
:101DB000000000000000000000001F8020404020C4
:101DC0000000402020401F800000000009000600A5
:101DD0001F80060009000000040004003F8004008A
:101DE000040000000010006000000000000000007F
:101DF000040004000400040004000000000000408F
:101E00000000000000000000002001C006003800B3
:101E1000400000001F802040204020401F80000024
:101E2000000010403FC000400000000018C02140EA
:101E300022402440184000001080204024402440CC
:101E40001B80000002000D0011003FC00140000097
:101E50003C80244024402440238000001F802440F4
:101E600024403440038000003000200027C03800A8
:101E7000200000001B802440244024401B800000E0
:101E80001C0022C0224022401F80000000000000F1
:101E90000840000000000000000000000460000096
:101EA00000000000000004000A00110020804040F3
:101EB0000900090009000900090000000000404075
:101EC000208011000A000400180020002340240094
:101ED000180000001F802040274029401F400000BC
:101EE000004007C039000F0001C0004020403FC043
:101EF000244024401B8000001F80204020402040C0
:101F00003080000020403FC0204020401F80000063
:101F100020403FC024402E4030C0000020403FC041
:101F200024402E00300000000F001080204022408E
:101F30003380020020403FC0040004003FC0204026
:101F4000204020403FC02040204000000060202072
:101F500020203FC02000200020403FC024400B0034
:101F600030C0204020403FC020400040004000C022
:101F70003FC03C0003C03C003FC0000020403FC0C9
:101F80000C4023003FC020001F8020402040204004
:101F90001F80000020403FC02440240018000000A3
:101FA0001F802140214020E01FA0000020403FC0B2
:101FB0002440260019C0004018C02440244022407C
:101FC00031800000300020403FC020403000000041
:101FD00020003F80004000403F80200020003E0065
:101FE00001C0070038002000380007C03C0007C0CF
:101FF00038000000204039C0060039C020400000F1
:102000002000384007C0384020000000304021C088
:102010002640384020C00000000000007FE0402043
:1020200040200000000070000C0003800040000011
:102030000000402040207FE0000000000000200061
:1020400040002000000000000010001000100010F0
:102050000010001000000000400000000000000020
:10206000000002800540054003C0004020003FC042
:10207000044004400380000000000380044004404A
:102080000640000000000380044024403FC00040A0
:1020900000000380054005400340000000000440AC
:1020A0001FC0244024402000000002E005500550DD
:1020B0000650042020403FC00440040003C00040FC
:1020C0000000044027C00040000000000010001085
:1020D000041027E00000000020403FC0014007003E
:1020E00004C00440204020403FC0004000400000A9
:1020F00007C0040007C0040003C00000044007C07C
:102100000440040003C00040000003800440044079
:1021100003800000041007F0045004400380000016
:10212000000003800440045007F00010044007C082
:102130000240040004000000000006400540054085
:1021400004C00000000004001F80044000400000A4
:10215000040007800040044007C00040040007005E
:1021600004C0018006000400060001C0070001C091
:1021700006000000044006C0010006C00440000044
:102180000410071004E00180060004000000044071
:1021900005C00640044000000000000004007BE091
:1021A00040200000000000000000FFF000000000E0
:1021B000000040207BE004000000000040008000A0
:1021C000400020002000400000000000000000004F
:1021D00000000000000000000000000000001FCC14
:1021E000000C00000000000000000800300060004B
:1021F0000800300060000000022003FC1E200220C6
:1022000003FC1E200220000000000E1811043FFFF6
:1022100010840C78000000000F0010840F3800C0FC
:10222000077818840078000000780F8410C4112407
:102230000E9800E4008400080800680070000000A8
:10224000000000000000000000000000000007E0A7
:102250001818200440020000000040022004181852
:1022600007E00000000000000240024001800FF083
:1022700001800240024000000080008000800FF8D2
:1022800000800080008000000001000D000E0000B2
:1022900000000000000000000000008000800080BE
:1022A00000800080008000800000000C000C000016
:1022B00000000000000000000000000600180060A0
:1022C0000180060018002000000007F00808100434
:1022D0001004080807F000000000080408041FFCB0
:1022E000000400040000000000000E0C1014102474
:1022F000104411840E0C000000000C18100411048E
:10230000110412880C700000000000E00320042477
:1023100008241FFC0024000000001F9810841104F2
:102320001104108810700000000007F008881104E4
:10233000110418880070000000001C00100010FC40
:1023400013001C001000000000000E38114410841F
:10235000108411440E38000000000700088C10445F
:102360001044088807F00000000000000000030C83
:10237000030C000000000000000000000001010646
:10238000000000000000000000000080014002206A
:10239000041008081004000002200220022002207D
:1023A000022002200220000000001004080804108F
:1023B000022001400080000000000E001200100CFE
:1023C000106C10800F00000003E00C1813E41424BC
:1023D00017C4082807D000000004003C03C41C40B8
:1023E000074000E4001C000410041FFC1104110449
:1023F00011040E880070000003E00C181004100493
:10240000100410081C10000010041FFC100410041D
:102410001004080807F0000010041FFC1104110448
:1024200017C410040818000010041FFC1104110048
:1024300017C010000800000003E00C18100410047E
:1024400010441C780040000010041FFC1084008021
:10245000008010841FFC10040000100410041FFCF6
:10246000100410040000000000030001100110011E
:102470001FFE10001000000010041FFC1104038058
:102480001464181C1004000010041FFC1004000445
:1024900000040004000C000010041FFC1F0000FCDE
:1024A0001F001FFC1004000010041FFC0C0403009C
:1024B00000E010181FFC100007F0080810041004BA
:1024C0001004080807F0000010041FFC108410809E
:1024D000108010800F00000007F00818102410244E
:1024E000101C080A07F2000010041FFC1104110060
:1024F00011C011300E0C000400000E1C11041084D9
:10250000108410441C3800001800100010041FFC38
:10251000100410001800000010001FF81004000440
:10252000000410041FF8100010001E0011E0001C31
:10253000007013801C0010001FC0103C00E01F0042
:1025400000E0103C1FC000001004180C163401C03D
:1025500001C01634180C100410001C00130400FCF9
:1025600013041C00100000000804101C10641084E8
:1025700013041C04101800000000000000007FFE7F
:102580004002400240020000000030000C000380C6
:102590000060001C000300000000400240024002F6
:1025A0007FFE00000000000000000000200040004E
:1025B0004000400020000000000100010001000177
:1025C0000001000100010001000040004000200067
:1025D00000000000000000000000009801240144F9
:1025E0000144014400FC000410001FFC00880104A9
:1025F00001040088007000000000007000880104E1
:10260000010401040088000000000070008801043B
:10261000010411081FFC0004000000F801440144FB
:102620000144014400C800000000010401040FFC43
:102630001104110411001800000000D6012901291D
:10264000012901C90106000010041FFC00840100DB
:102650000100010400FC000400000104190419FC3D
:10266000000400040000000000000003000101015C
:10267000190119FE0000000010041FFC0024004096
:1026800001B4010C010400000000100410041FFC40
:102690000004000400000000010401FC010401002A
:1026A00001FC0104010000FC010401FC00840100A4
:1026B0000100010400FC0004000000F80104010412
:1026C0000104010400F80000010101FF008501047C
:1026D0000104008800700000000000700088010400
:1026E0000104010501FF00010104010401FC008453
:1026F0000104010001800000000000CC012401243D
:10270000012401240198000000000100010007F8E5
:102710000104010400000000010001F800040004AD
:102720000004010801FC0004010001800170000C9C
:10273000001001600180010001F0010C003001C0B7
:102740000030010C01F0010000000104018C007454
:102750000170018C01040000010101810171000E72
:10276000001801600180010000000184010C0134A7
:1027700001440184010C0000000000000000000082
:1027800001003EFC4002400200000000000000008A
:10279000FFFF0000000000000000400240023EFC7D
:1027A00001000000000000000000600080008000C8
:1027B0004000400020002000000000000000000059
:1027C0000000000000000000000000000000000009
:1027D00000000000000000000000000000000000F9
:1027E00000000000000000000000000F80380FFE15
:1027F000380F8038000000000000000000000000DA
:102800000000000000000100000600000C0000387D
:1028100000003100000600000C000038000030000D
:10282000000000000000000061800067F807F980E8
:102830000061800061800061800061800067F807AE
:10284000F98000618000000000000000000001C06D
:10285000E003E0F00630080418081FFFFE040E082D
:102860000787F00381E000000000000001F000068F
:102870000C00040408060C7001F9C0000E00003BB7
:10288000E000EC18070808040C180003E000000042
:102890000001E00007F003F818041C0804170807FB
:1028A000E1D003C0E00023B0003C08002008000095
:1028B00010000000000000010000310000320000A4
:1028C0001C000000000000000000000000000000EC
:1028D00000000000000000000000000000000000F8
:1028E00000000000000000007F0001FFC00780F032
:1028F0000C0018100004200002000000000000205E
:1029000000021000040C00180780F001FFC0007FD7
:1029100000000000000000000000000000000000B7
:10292000000000004200006600006600003C00005D
:10293000180003FFC0001800003C0000660000669D
:10294000000042000000000008000008000008002D
:1029500000080000080001FFC00008000008000097
:10296000080000080000080000000000000100004E
:102970003100003200001C000000000000000000D8
:102980000000000000000000000000000000000047
:102990000800000800000800000800000800000807
:1029A0000000080000080000080000080000000007
:1029B000000000000000000038000038000038006F
:1029C0000000000000000000000000000000000007
:1029D0000000000000000000000600001C00007065
:1029E000000180000E0000380000C0000700001C3D
:1029F0000000300000000000000000007F8001FFA8
:102A0000E00380700600180400080400080600189F
:102A100003807001FFE0007F8000000000000000E4
:102A2000000001000801000801000803FFF807FF8B
:102A3000F800000800000800000800000000000086
:102A400000000001C03802C05804009804011804B6
:102A50000218040418061C1803F81801E0F8000016
:102A60000000000000000001C0E003C0F004000806
:102A700004080804080806180803F41801E7F00021
:102A800001E0000000000000000000000300000D55
:102A90000000110000610000810803010807FFF831
:102AA0000FFFF8000108000108000000000000000E
:102AB00000E007FCD00608080610080610080610FB
:102AC00008061838060FF00607C0000000000000D6
:102AD000000000003F8001FFE0038430020818047A
:102AE0001008041008041008071810030FF000075E
:102AF000C000000000000000000003C0000700004C
:102B00000600000600F80607F806180006E00007B1
:102B1000000006000000000000000001E1E003F7F3
:102B2000F0063410041808041808040C08040C08F3
:102B300006161803F3F001C1E000000000000000D9
:102B4000F80003FC300306380402080402080402FB
:102B5000080404100308F001FFC0007F000000001B
:102B60000000000000000000000000000000000065
:102B7000703800703800703800000000000000005D
:102B80000000000000000000000000000000000045
:102B900000000000301A00301C000000000000009F
:102BA000000000000000000000000000000000081D
:102BB000000014000022000041000080800100405D
:102BC00002002004001008000800000000000000BF
:102BD000210000210000210000210000210000212F
:102BE0000000210000210000210000210000000061
:102BF000000000000000080008040010020020018E
:102C00000040008080004100002200001400000805
:102C10000000000000000003C00004C00004000029
:102C2000080038080F380808380810000C30000772
:102C3000E00003C000000000000000003F8000FF33
:102C4000E0038070020F1006708804C088048308B7
:102C5000047F8802C09003012000FE4000000800AD
:102C600000180001F8003E0801C20007020007E258
:102C70000000FE00001FC80001F800003800000836
:102C800004000807FFF807FFF80408080408080410
:102C9000080804080806180803F41801E7F0000102
:102CA000E0000000000000003F8001FFE0038070B2
:102CB00002001804000804000804000804001006BC
:102CC00000200780C000000004000807FFF807FF8D
:102CD000F8040008040008040008040018020010AA
:102CE00003807001FFE0007F8000000004000807FF
:102CF000FFF807FFF8040808040808040808040897
:102D000008043E08040008060018010060000000E6
:102D100004000807FFF807FFF80408080408000487
:102D20000800040800043E000600000600000180C0
:102D300000000000000000003F8001FFE003807001
:102D40000600180400080402080402080203F00741
:102D500083F000020000020004000807FFF807FFEC
:102D6000F804080800080000080000080000080037
:102D700004080807FFF807FFF80400080000000037
:102D8000000004000804000804000807FFF807FF1B
:102D9000F804000804000804000800000000000017
:102DA000000000000006000007000001040001040C
:102DB000000104000307FFFE07FFFC0400000400FD
:102DC0000004000004000807FFF807FFF8040C08DF
:102DD000001800003E0004C7800503C80600F80480
:102DE000003804001800000804000807FFF807FF77
:102DF000F8040008000008000008000008000008AF
:102E0000000008000018000060000000040008072F
:102E1000FFF807800807FC00007FC00003F80007E8
:102E2000C000780007800807FFF807FFF8040008D3
:102E300004000807FFF807000803C00000E00000D6
:102E40003800001E000007000001C00400F007FF6A
:102E5000F8040000000000007F8001FFE0038070A4
:102E600006001804000804000806001803003001DA
:102E7000FFE0007F8000000004000807FFF807FF64
:102E8000F80404080404000404000404000404001A
:102E9000060C0003F80001F0000000000000000034
:102EA0007F8001FFE0038070060088040088040032
:102EB000C806003C03003E01FFE6007F84000000DE
:102EC00004000807FFF807FFF804080804080004D6
:102ED0000C00040F00040BC00610F003F03801E0F2
:102EE0000800000800000001E0F803F03006301090
:102EF000041808041808040C08040C080206180238
:102F000007F00781E00000000180000600000400D7
:102F10000004000004000807FFF807FFF804000899
:102F20000400000400000600000180000400000707
:102F3000FFE007FFF0040018000008000008000090
:102F40000800000800000804001007FFE00400006B
:102F500004000006000007E00007FE00041FE00078
:102F600001F80000380001E0043E0007C000060040
:102F70000004000004000007E00007FFC0041FF881
:102F80000007C007F80007FF80043FF80007C004EF
:102F9000F80007000004000000000004000806001C
:102FA0001807C07805F1C8003E00001F800463E8E0
:102FB0000780F8060018040008000000040000065E
:102FC000000007800007E008047C08001FF80007E5
:102FD000F800180804E008070000060000040000DC
:102FE0000000000100080600380400F80403E804AB
:102FF0000F08047C0805F00807C008070018040043
:103000006000000000000000000000000000000060
:103010000000003FFFFE20000220000220000220EE
:103020000002200002000000000000000000080074
:103030000007000000C0000038000006000001C0CA
:1030400000003000000E0000010000000000000041
:1030500000002000022000022000022000022000C8
:10306000023FFFFE00000000000000000000000022
:103070000000000000000000000800001000003008
:1030800000002000003000001000000800000000D8
:10309000000000000000010000010000010000012C
:1030A000000001000001000001000001000001001B
:1030B000000100000100000100000000000000000D
:1030C00000200000200000100000100000000000A0
:1030D00000000000000000000000000000000000F0
:1030E00000F00019F8001B18002208002608002430
:1030F00008002410003FF8001FF800000800001826
:1031000000000004000007FFF80FFFF0001818008F
:103110001008002008002008003018001FF0000FE1
:10312000C00000000000000007C0001FF0001830C1
:10313000002008002008002008003C08001C1000A7
:1031400000600000000000000000000007C0001F39
:10315000F000381800200800200800200804101093
:1031600007FFF80FFFF00000100000000000000053
:1031700000000007C0001FF00012300022180022DB
:1031800008002208003208001E10000E2000000077
:1031900000000000200000200800200801FFF803C4
:1031A000FFF8062008042008042008072000030078
:1031B0000000000000000000000E000E6E001FF373
:1031C0000031B10020B10020B1003191001F130087
:1031D0002E1E00200E00300000000004000807FF33
:1031E000F80FFFF800100800200000200000200861
:1031F000003FF8001FF80000080000000000000079
:103200000000002008002008002008063FF8063FC4
:10321000F80000080000080000080000000000009E
:103220000000000000000000030000030020010077
:103230002001002003063FFE063FFC0000000000C6
:103240000000000000000004000807FFF80FFFF86E
:10325000000188000300002FC00038F8002038006B
:10326000200800000800000000000000000004002A
:103270000804000804000807FFF80FFFF800000822
:103280000000080000080000000000000020080006
:103290003FF8003FF8001008002000003FF8003F12
:1032A000F8001008002000003FF8003FF800000878
:1032B000000000002008003FF8003FF80010080060
:1032C0001000002000002008003FF8001FF8000058
:1032D000080000000000000007C0000FF0001830D8
:1032E00000300800200800200800300800183000D6
:1032F0000FF00007C0000000000000002001003FA8
:10330000FF003FFF001011002009002008002008E6
:10331000003038001FF0000FC00000000000000067
:1033200007C0001FF0003818002008002008002007
:1033300009001011001FFF003FFF00000100000006
:10334000002008002008002008003FF8003FF80097
:10335000080800100800200800200000300000309D
:1033600000000000000000000000000C78001E18A3
:10337000003308002308002108002188002198005C
:1033800030F0003860000000000000002000002045
:103390000000200000FFF003FFF8002008002008D4
:1033A00000200800003000000000000000000000C5
:1033B0002000003FF0007FF8000018000008000027
:1033C00008002010003FF8007FF00000100000000F
:1033D000000000002000003000003C00003F8000A2
:1033E00023F0000078000070002380003C000030D3
:1033F00000002000002000003C00003FE00023F817
:103400000000E0002700003E00003FE00021F8003F
:1034100001E0003E00002000000000002008002025
:1034200008003838003E680027800003C8002CF8E8
:1034300000383800201800200800000000000000BC
:103440002000003003003C01003F830023EC00001B
:1034500070002380003C00002000002000000000DD
:103460000000000000000038080020380020F800AC
:1034700023E8002F88003E080038080020180000CC
:1034800070000000000000000000000000000000CC
:103490000000000008000014001FF7FC30000620A8
:1034A000000200000000000000000000000000001A
:1034B00000000000000000000000FFFFFF0000000F
:1034C00000000000000000000000000000000000FC
:1034D00000002000023000061FF7FC001400000866
:1034E00000000000000000000000000000000000DC
:1034F00000000018000060000040000040000020B4
:1035000000001000000800000400000400000C008F
:103510000010000034350008000000201C000000EE
:10352000C4010008503500081C0000202C0B0000CE
:10353000E0010008000000000000000000000000A2
:103540000000010203040102030406070809000049
:040000050800018965
:00000001FF
